{
  "_format": "hh-sol-artifact-1",
  "contractName": "MerkleDistributor",
  "sourceName": "contracts/MerkleDistributor.sol",
  "abi": [
    {
      "inputs": [
        {
          "internalType": "address",
          "name": "token_",
          "type": "address"
        },
        {
          "internalType": "address",
          "name": "token721_",
          "type": "address"
        },
        {
          "internalType": "address",
          "name": "token1155_",
          "type": "address"
        },
        {
          "internalType": "bytes32",
          "name": "merkleRoot_",
          "type": "bytes32"
        },
        {
          "internalType": "uint256",
          "name": "dropERC20_",
          "type": "uint256"
        }
      ],
      "stateMutability": "nonpayable",
      "type": "constructor"
    },
    {
      "anonymous": false,
      "inputs": [
        {
          "indexed": true,
          "internalType": "address",
          "name": "_from",
          "type": "address"
        },
        {
          "indexed": false,
          "internalType": "uint256",
          "name": "_dropERC20",
          "type": "uint256"
        }
      ],
      "name": "ClaimedERC20",
      "type": "event"
    },
    {
      "inputs": [
        {
          "internalType": "bytes32[]",
          "name": "merkleProof",
          "type": "bytes32[]"
        }
      ],
      "name": "claim",
      "outputs": [],
      "stateMutability": "nonpayable",
      "type": "function"
    },
    {
      "inputs": [
        {
          "internalType": "address",
          "name": "from",
          "type": "address"
        },
        {
          "internalType": "address",
          "name": "to",
          "type": "address"
        },
        {
          "internalType": "uint256",
          "name": "tokenId",
          "type": "uint256"
        },
        {
          "internalType": "bytes32[]",
          "name": "merkleProof",
          "type": "bytes32[]"
        }
      ],
      "name": "claim721",
      "outputs": [],
      "stateMutability": "nonpayable",
      "type": "function"
    },
    {
      "inputs": [],
      "name": "dropERC20",
      "outputs": [
        {
          "internalType": "uint256",
          "name": "",
          "type": "uint256"
        }
      ],
      "stateMutability": "view",
      "type": "function"
    },
    {
      "inputs": [],
      "name": "merkleRoot",
      "outputs": [
        {
          "internalType": "bytes32",
          "name": "",
          "type": "bytes32"
        }
      ],
      "stateMutability": "view",
      "type": "function"
    },
    {
      "inputs": [
        {
          "internalType": "address",
          "name": "",
          "type": "address"
        },
        {
          "internalType": "address",
          "name": "",
          "type": "address"
        },
        {
          "internalType": "uint256[]",
          "name": "",
          "type": "uint256[]"
        },
        {
          "internalType": "uint256[]",
          "name": "",
          "type": "uint256[]"
        },
        {
          "internalType": "bytes",
          "name": "",
          "type": "bytes"
        }
      ],
      "name": "onERC1155BatchReceived",
      "outputs": [
        {
          "internalType": "bytes4",
          "name": "",
          "type": "bytes4"
        }
      ],
      "stateMutability": "nonpayable",
      "type": "function"
    },
    {
      "inputs": [
        {
          "internalType": "address",
          "name": "",
          "type": "address"
        },
        {
          "internalType": "address",
          "name": "",
          "type": "address"
        },
        {
          "internalType": "uint256",
          "name": "",
          "type": "uint256"
        },
        {
          "internalType": "uint256",
          "name": "",
          "type": "uint256"
        },
        {
          "internalType": "bytes",
          "name": "",
          "type": "bytes"
        }
      ],
      "name": "onERC1155Received",
      "outputs": [
        {
          "internalType": "bytes4",
          "name": "",
          "type": "bytes4"
        }
      ],
      "stateMutability": "nonpayable",
      "type": "function"
    },
    {
      "inputs": [
        {
          "internalType": "address",
          "name": "",
          "type": "address"
        },
        {
          "internalType": "address",
          "name": "",
          "type": "address"
        },
        {
          "internalType": "uint256",
          "name": "",
          "type": "uint256"
        },
        {
          "internalType": "bytes",
          "name": "",
          "type": "bytes"
        }
      ],
      "name": "onERC721Received",
      "outputs": [
        {
          "internalType": "bytes4",
          "name": "",
          "type": "bytes4"
        }
      ],
      "stateMutability": "nonpayable",
      "type": "function"
    },
    {
      "inputs": [
        {
          "internalType": "bytes4",
          "name": "interfaceId",
          "type": "bytes4"
        }
      ],
      "name": "supportsInterface",
      "outputs": [
        {
          "internalType": "bool",
          "name": "",
          "type": "bool"
        }
      ],
      "stateMutability": "view",
      "type": "function"
    },
    {
      "inputs": [],
      "name": "tokenERC1155",
      "outputs": [
        {
          "internalType": "address",
          "name": "",
          "type": "address"
        }
      ],
      "stateMutability": "view",
      "type": "function"
    },
    {
      "inputs": [],
      "name": "tokenERC20",
      "outputs": [
        {
          "internalType": "address",
          "name": "",
          "type": "address"
        }
      ],
      "stateMutability": "view",
      "type": "function"
    },
    {
      "inputs": [],
      "name": "tokenERC721",
      "outputs": [
        {
          "internalType": "address",
          "name": "",
          "type": "address"
        }
      ],
      "stateMutability": "view",
      "type": "function"
    }
  ],
  "bytecode": "0x6101006040523480156200001257600080fd5b50604051620015b5380380620015b58339818101604052810190620000389190620001ce565b8473ffffffffffffffffffffffffffffffffffffffff1660808173ffffffffffffffffffffffffffffffffffffffff16815250508373ffffffffffffffffffffffffffffffffffffffff1660a08173ffffffffffffffffffffffffffffffffffffffff16815250508273ffffffffffffffffffffffffffffffffffffffff1660c08173ffffffffffffffffffffffffffffffffffffffff16815250508160e0818152505080600081905550505050505062000256565b600080fd5b600073ffffffffffffffffffffffffffffffffffffffff82169050919050565b60006200012082620000f3565b9050919050565b620001328162000113565b81146200013e57600080fd5b50565b600081519050620001528162000127565b92915050565b6000819050919050565b6200016d8162000158565b81146200017957600080fd5b50565b6000815190506200018d8162000162565b92915050565b6000819050919050565b620001a88162000193565b8114620001b457600080fd5b50565b600081519050620001c8816200019d565b92915050565b600080600080600060a08688031215620001ed57620001ec620000ee565b5b6000620001fd8882890162000141565b9550506020620002108882890162000141565b9450506040620002238882890162000141565b935050606062000236888289016200017c565b92505060806200024988828901620001b7565b9150509295509295909350565b60805160a05160c05160e051611309620002ac600039600081816102f0015281816104300152610668015260006102b8015260008181610693015261072b01526000818161031a01526104a001526113096000f3fe608060405234801561001057600080fd5b50600436106100a95760003560e01c80639d143e8e116100715780639d143e8e14610168578063b391c50814610186578063bc197c81146101a2578063e333ee02146101d2578063e9adc770146101ee578063f23a6e611461020c576100a9565b806301ffc9a7146100ae57806309c33c67146100de578063150b7a02146100fc5780632eb4a7ab1461012c57806373f95d6b1461014a575b600080fd5b6100c860048036038101906100c391906108e7565b61023c565b6040516100d5919061092f565b60405180910390f35b6100e66102b6565b6040516100f3919061098b565b60405180910390f35b61011660048036038101906101119190610b4e565b6102da565b6040516101239190610be0565b60405180910390f35b6101346102ee565b6040516101419190610c14565b60405180910390f35b610152610312565b60405161015f9190610c3e565b60405180910390f35b610170610318565b60405161017d919061098b565b60405180910390f35b6101a0600480360381019061019b9190610cb9565b61033c565b005b6101bc60048036038101906101b79190610dc9565b6105e1565b6040516101c99190610be0565b60405180910390f35b6101ec60048036038101906101e79190610e98565b6105f6565b005b6101f6610729565b604051610203919061098b565b60405180910390f35b61022660048036038101906102219190610f20565b61074d565b6040516102339190610be0565b60405180910390f35b60007f4e2312e0000000000000000000000000000000000000000000000000000000007bffffffffffffffffffffffffffffffffffffffffffffffffffffffff1916827bffffffffffffffffffffffffffffffffffffffffffffffffffffffff191614806102af57506102ae82610762565b5b9050919050565b7f000000000000000000000000000000000000000000000000000000000000000081565b600063150b7a0260e01b9050949350505050565b7f000000000000000000000000000000000000000000000000000000000000000081565b60005481565b7f000000000000000000000000000000000000000000000000000000000000000081565b6000600160003373ffffffffffffffffffffffffffffffffffffffff1673ffffffffffffffffffffffffffffffffffffffff16815260200190815260200160002054146103be576040517f08c379a00000000000000000000000000000000000000000000000000000000081526004016103b590611014565b60405180910390fd5b6000336040516020016103d1919061107c565b604051602081830303815290604052805190602001209050610455838380806020026020016040519081016040528093929190818152602001838360200280828437600081840152601f19601f820116905080830192505050505050507f0000000000000000000000000000000000000000000000000000000000000000836107cc565b61049e5760018060003373ffffffffffffffffffffffffffffffffffffffff1673ffffffffffffffffffffffffffffffffffffffff168152602001908152602001600020819055505b7f000000000000000000000000000000000000000000000000000000000000000073ffffffffffffffffffffffffffffffffffffffff1663a9059cbb336000546040518363ffffffff1660e01b81526004016104fb929190611097565b602060405180830381600087803b15801561051557600080fd5b505af1158015610529573d6000803e3d6000fd5b505050506040513d601f19601f8201168201806040525081019061054d91906110ec565b61058c576040517f08c379a000000000000000000000000000000000000000000000000000000000815260040161058390611165565b60405180910390fd5b3373ffffffffffffffffffffffffffffffffffffffff167fc738b2de230010873d5b81370b4c10250e8eaec27550f0c43faf979e093090836000546040516105d49190610c3e565b60405180910390a2505050565b600063bc197c8160e01b905095945050505050565b600033604051602001610609919061107c565b60405160208183030381529060405280519060200120905061068d838380806020026020016040519081016040528093929190818152602001838360200280828437600081840152601f19601f820116905080830192505050505050507f0000000000000000000000000000000000000000000000000000000000000000836107cc565b610721577f000000000000000000000000000000000000000000000000000000000000000073ffffffffffffffffffffffffffffffffffffffff1663b88d4fde8787876040518463ffffffff1660e01b81526004016106ee939291906111e2565b600060405180830381600087803b15801561070857600080fd5b505af115801561071c573d6000803e3d6000fd5b505050505b505050505050565b7f000000000000000000000000000000000000000000000000000000000000000081565b600063f23a6e6160e01b905095945050505050565b60007f01ffc9a7000000000000000000000000000000000000000000000000000000007bffffffffffffffffffffffffffffffffffffffffffffffffffffffff1916827bffffffffffffffffffffffffffffffffffffffffffffffffffffffff1916149050919050565b6000826107d985846107e3565b1490509392505050565b60008082905060005b845181101561082e576108198286838151811061080c5761080b61122c565b5b6020026020010151610839565b915080806108269061128a565b9150506107ec565b508091505092915050565b60008183106108515761084c8284610864565b61085c565b61085b8383610864565b5b905092915050565b600082600052816020526040600020905092915050565b6000604051905090565b600080fd5b600080fd5b60007fffffffff0000000000000000000000000000000000000000000000000000000082169050919050565b6108c48161088f565b81146108cf57600080fd5b50565b6000813590506108e1816108bb565b92915050565b6000602082840312156108fd576108fc610885565b5b600061090b848285016108d2565b91505092915050565b60008115159050919050565b61092981610914565b82525050565b60006020820190506109446000830184610920565b92915050565b600073ffffffffffffffffffffffffffffffffffffffff82169050919050565b60006109758261094a565b9050919050565b6109858161096a565b82525050565b60006020820190506109a0600083018461097c565b92915050565b6109af8161096a565b81146109ba57600080fd5b50565b6000813590506109cc816109a6565b92915050565b6000819050919050565b6109e5816109d2565b81146109f057600080fd5b50565b600081359050610a02816109dc565b92915050565b600080fd5b600080fd5b6000601f19601f8301169050919050565b7f4e487b7100000000000000000000000000000000000000000000000000000000600052604160045260246000fd5b610a5b82610a12565b810181811067ffffffffffffffff82111715610a7a57610a79610a23565b5b80604052505050565b6000610a8d61087b565b9050610a998282610a52565b919050565b600067ffffffffffffffff821115610ab957610ab8610a23565b5b610ac282610a12565b9050602081019050919050565b82818337600083830152505050565b6000610af1610aec84610a9e565b610a83565b905082815260208101848484011115610b0d57610b0c610a0d565b5b610b18848285610acf565b509392505050565b600082601f830112610b3557610b34610a08565b5b8135610b45848260208601610ade565b91505092915050565b60008060008060808587031215610b6857610b67610885565b5b6000610b76878288016109bd565b9450506020610b87878288016109bd565b9350506040610b98878288016109f3565b925050606085013567ffffffffffffffff811115610bb957610bb861088a565b5b610bc587828801610b20565b91505092959194509250565b610bda8161088f565b82525050565b6000602082019050610bf56000830184610bd1565b92915050565b6000819050919050565b610c0e81610bfb565b82525050565b6000602082019050610c296000830184610c05565b92915050565b610c38816109d2565b82525050565b6000602082019050610c536000830184610c2f565b92915050565b600080fd5b600080fd5b60008083601f840112610c7957610c78610a08565b5b8235905067ffffffffffffffff811115610c9657610c95610c59565b5b602083019150836020820283011115610cb257610cb1610c5e565b5b9250929050565b60008060208385031215610cd057610ccf610885565b5b600083013567ffffffffffffffff811115610cee57610ced61088a565b5b610cfa85828601610c63565b92509250509250929050565b600067ffffffffffffffff821115610d2157610d20610a23565b5b602082029050602081019050919050565b6000610d45610d4084610d06565b610a83565b90508083825260208201905060208402830185811115610d6857610d67610c5e565b5b835b81811015610d915780610d7d88826109f3565b845260208401935050602081019050610d6a565b5050509392505050565b600082601f830112610db057610daf610a08565b5b8135610dc0848260208601610d32565b91505092915050565b600080600080600060a08688031215610de557610de4610885565b5b6000610df3888289016109bd565b9550506020610e04888289016109bd565b945050604086013567ffffffffffffffff811115610e2557610e2461088a565b5b610e3188828901610d9b565b935050606086013567ffffffffffffffff811115610e5257610e5161088a565b5b610e5e88828901610d9b565b925050608086013567ffffffffffffffff811115610e7f57610e7e61088a565b5b610e8b88828901610b20565b9150509295509295909350565b600080600080600060808688031215610eb457610eb3610885565b5b6000610ec2888289016109bd565b9550506020610ed3888289016109bd565b9450506040610ee4888289016109f3565b935050606086013567ffffffffffffffff811115610f0557610f0461088a565b5b610f1188828901610c63565b92509250509295509295909350565b600080600080600060a08688031215610f3c57610f3b610885565b5b6000610f4a888289016109bd565b9550506020610f5b888289016109bd565b9450506040610f6c888289016109f3565b9350506060610f7d888289016109f3565b925050608086013567ffffffffffffffff811115610f9e57610f9d61088a565b5b610faa88828901610b20565b9150509295509295909350565b600082825260208201905092915050565b7f436c61696d656420455243323000000000000000000000000000000000000000600082015250565b6000610ffe600d83610fb7565b915061100982610fc8565b602082019050919050565b6000602082019050818103600083015261102d81610ff1565b9050919050565b60008160601b9050919050565b600061104c82611034565b9050919050565b600061105e82611041565b9050919050565b6110766110718261096a565b611053565b82525050565b60006110888284611065565b60148201915081905092915050565b60006040820190506110ac600083018561097c565b6110b96020830184610c2f565b9392505050565b6110c981610914565b81146110d457600080fd5b50565b6000815190506110e6816110c0565b92915050565b60006020828403121561110257611101610885565b5b6000611110848285016110d7565b91505092915050565b7f5472616e73666572206661696c65640000000000000000000000000000000000600082015250565b600061114f600f83610fb7565b915061115a82611119565b602082019050919050565b6000602082019050818103600083015261117e81611142565b9050919050565b600082825260208201905092915050565b7f3078000000000000000000000000000000000000000000000000000000000000600082015250565b60006111cc600283611185565b91506111d782611196565b602082019050919050565b60006080820190506111f7600083018661097c565b611204602083018561097c565b6112116040830184610c2f565b8181036060830152611222816111bf565b9050949350505050565b7f4e487b7100000000000000000000000000000000000000000000000000000000600052603260045260246000fd5b7f4e487b7100000000000000000000000000000000000000000000000000000000600052601160045260246000fd5b6000611295826109d2565b91507fffffffffffffffffffffffffffffffffffffffffffffffffffffffffffffffff8214156112c8576112c761125b565b5b60018201905091905056fea2646970667358221220234e5ef8d436941f0baff36b5b04b34ee382ae42d2cdd65f7ae001ff008e4ac464736f6c63430008090033",
  "linkReferences": {},
  "deployedLinkReferences": {}
}