{
  "_format": "hh-sol-artifact-1",
  "contractName": "MerkleDistributor",
  "sourceName": "contracts/MerkleDistributor.sol",
  "abi": [
    {
      "inputs": [
        {
          "internalType": "address",
          "name": "token_",
          "type": "address"
        },
        {
          "internalType": "address",
          "name": "token721_",
          "type": "address"
        },
        {
          "internalType": "address",
          "name": "token1155_",
          "type": "address"
        },
        {
          "internalType": "bytes32",
          "name": "merkleRoot_",
          "type": "bytes32"
        },
        {
          "internalType": "uint256",
          "name": "dropERC20_",
          "type": "uint256"
        }
      ],
      "stateMutability": "nonpayable",
      "type": "constructor"
    },
    {
      "anonymous": false,
      "inputs": [
        {
          "indexed": true,
          "internalType": "address",
          "name": "_from",
          "type": "address"
        },
        {
          "indexed": false,
          "internalType": "uint256",
          "name": "_dropERC20",
          "type": "uint256"
        }
      ],
      "name": "ClaimedERC20",
      "type": "event"
    },
    {
      "anonymous": false,
      "inputs": [
        {
          "indexed": false,
          "internalType": "uint256",
          "name": "request",
          "type": "uint256"
        }
      ],
      "name": "RequestID",
      "type": "event"
    },
    {
      "inputs": [
        {
          "internalType": "bytes32[]",
          "name": "merkleProof",
          "type": "bytes32[]"
        }
      ],
      "name": "claim",
      "outputs": [],
      "stateMutability": "nonpayable",
      "type": "function"
    },
    {
      "inputs": [
        {
          "internalType": "address",
          "name": "from",
          "type": "address"
        },
        {
          "internalType": "address",
          "name": "to",
          "type": "address"
        },
        {
          "internalType": "uint256",
          "name": "tokenId",
          "type": "uint256"
        },
        {
          "internalType": "bytes32[]",
          "name": "merkleProof",
          "type": "bytes32[]"
        }
      ],
      "name": "claim721",
      "outputs": [],
      "stateMutability": "nonpayable",
      "type": "function"
    },
    {
      "inputs": [],
      "name": "drawWinner",
      "outputs": [],
      "stateMutability": "nonpayable",
      "type": "function"
    },
    {
      "inputs": [],
      "name": "dropERC20",
      "outputs": [
        {
          "internalType": "uint256",
          "name": "",
          "type": "uint256"
        }
      ],
      "stateMutability": "view",
      "type": "function"
    },
    {
      "inputs": [],
      "name": "merkleRoot",
      "outputs": [
        {
          "internalType": "bytes32",
          "name": "",
          "type": "bytes32"
        }
      ],
      "stateMutability": "view",
      "type": "function"
    },
    {
      "inputs": [
        {
          "internalType": "address",
          "name": "",
          "type": "address"
        },
        {
          "internalType": "address",
          "name": "",
          "type": "address"
        },
        {
          "internalType": "uint256[]",
          "name": "",
          "type": "uint256[]"
        },
        {
          "internalType": "uint256[]",
          "name": "",
          "type": "uint256[]"
        },
        {
          "internalType": "bytes",
          "name": "",
          "type": "bytes"
        }
      ],
      "name": "onERC1155BatchReceived",
      "outputs": [
        {
          "internalType": "bytes4",
          "name": "",
          "type": "bytes4"
        }
      ],
      "stateMutability": "nonpayable",
      "type": "function"
    },
    {
      "inputs": [
        {
          "internalType": "address",
          "name": "",
          "type": "address"
        },
        {
          "internalType": "address",
          "name": "",
          "type": "address"
        },
        {
          "internalType": "uint256",
          "name": "",
          "type": "uint256"
        },
        {
          "internalType": "uint256",
          "name": "",
          "type": "uint256"
        },
        {
          "internalType": "bytes",
          "name": "",
          "type": "bytes"
        }
      ],
      "name": "onERC1155Received",
      "outputs": [
        {
          "internalType": "bytes4",
          "name": "",
          "type": "bytes4"
        }
      ],
      "stateMutability": "nonpayable",
      "type": "function"
    },
    {
      "inputs": [
        {
          "internalType": "address",
          "name": "",
          "type": "address"
        },
        {
          "internalType": "address",
          "name": "",
          "type": "address"
        },
        {
          "internalType": "uint256",
          "name": "",
          "type": "uint256"
        },
        {
          "internalType": "bytes",
          "name": "",
          "type": "bytes"
        }
      ],
      "name": "onERC721Received",
      "outputs": [
        {
          "internalType": "bytes4",
          "name": "",
          "type": "bytes4"
        }
      ],
      "stateMutability": "nonpayable",
      "type": "function"
    },
    {
      "inputs": [
        {
          "internalType": "bytes4",
          "name": "interfaceId",
          "type": "bytes4"
        }
      ],
      "name": "supportsInterface",
      "outputs": [
        {
          "internalType": "bool",
          "name": "",
          "type": "bool"
        }
      ],
      "stateMutability": "view",
      "type": "function"
    },
    {
      "inputs": [],
      "name": "tokenERC1155",
      "outputs": [
        {
          "internalType": "address",
          "name": "",
          "type": "address"
        }
      ],
      "stateMutability": "view",
      "type": "function"
    },
    {
      "inputs": [],
      "name": "tokenERC20",
      "outputs": [
        {
          "internalType": "address",
          "name": "",
          "type": "address"
        }
      ],
      "stateMutability": "view",
      "type": "function"
    },
    {
      "inputs": [],
      "name": "tokenERC721",
      "outputs": [
        {
          "internalType": "address",
          "name": "",
          "type": "address"
        }
      ],
      "stateMutability": "view",
      "type": "function"
    }
  ],
  "bytecode": "0x6101006040523480156200001257600080fd5b5060405162003187380380620031878339818101604052810190620000389190620001ce565b8473ffffffffffffffffffffffffffffffffffffffff1660808173ffffffffffffffffffffffffffffffffffffffff16815250508373ffffffffffffffffffffffffffffffffffffffff1660a08173ffffffffffffffffffffffffffffffffffffffff16815250508273ffffffffffffffffffffffffffffffffffffffff1660c08173ffffffffffffffffffffffffffffffffffffffff16815250508160e0818152505080600081905550505050505062000256565b600080fd5b600073ffffffffffffffffffffffffffffffffffffffff82169050919050565b60006200012082620000f3565b9050919050565b620001328162000113565b81146200013e57600080fd5b50565b600081519050620001528162000127565b92915050565b6000819050919050565b6200016d8162000158565b81146200017957600080fd5b50565b6000815190506200018d8162000162565b92915050565b6000819050919050565b620001a88162000193565b8114620001b457600080fd5b50565b600081519050620001c8816200019d565b92915050565b600080600080600060a08688031215620001ed57620001ec620000ee565b5b6000620001fd8882890162000141565b9550506020620002108882890162000141565b9450506040620002238882890162000141565b935050606062000236888289016200017c565b92505060806200024988828901620001b7565b9150509295509295909350565b60805160a05160c05160e051612edb620002ac6000396000818161034e0152818161059801526107e00152600061031601526000818161080d01526108a9015260008181610378015261060a0152612edb6000f3fe60806040523480156200001157600080fd5b5060043610620000c45760003560e01c8063b2185bb1116200007b578063b2185bb114620001bd578063b391c50814620001c9578063bc197c8114620001e9578063e333ee02146200021f578063e9adc770146200023f578063f23a6e61146200026157620000c4565b806301ffc9a714620000c957806309c33c6714620000ff578063150b7a0214620001215780632eb4a7ab146200015757806373f95d6b14620001795780639d143e8e146200019b575b600080fd5b620000e76004803603810190620000e1919062000a89565b62000297565b604051620000f6919062000ad8565b60405180910390f35b6200010962000314565b60405162000118919062000b3a565b60405180910390f35b6200013f600480360381019062000139919062000d25565b62000338565b6040516200014e919062000dc7565b60405180910390f35b620001616200034c565b60405162000170919062000dff565b60405180910390f35b6200018362000370565b60405162000192919062000e2d565b60405180910390f35b620001a562000376565b604051620001b4919062000b3a565b60405180910390f35b620001c76200039a565b005b620001e76004803603810190620001e1919062000eb3565b6200049e565b005b62000207600480360381019062000201919062000fde565b62000756565b60405162000216919062000dc7565b60405180910390f35b6200023d6004803603810190620002379190620010c3565b6200076b565b005b62000249620008a7565b60405162000258919062000b3a565b60405180910390f35b6200027f600480360381019062000279919062001159565b620008cb565b6040516200028e919062000dc7565b60405180910390f35b60007f4e2312e0000000000000000000000000000000000000000000000000000000007bffffffffffffffffffffffffffffffffffffffffffffffffffffffff1916827bffffffffffffffffffffffffffffffffffffffffffffffffffffffff191614806200030d57506200030c82620008e0565b5b9050919050565b7f000000000000000000000000000000000000000000000000000000000000000081565b600063150b7a0260e01b9050949350505050565b7f000000000000000000000000000000000000000000000000000000000000000081565b60005481565b7f000000000000000000000000000000000000000000000000000000000000000081565b60006101c1604051620003ad9062000a0a565b620003b9919062001261565b604051809103906000f080158015620003d6573d6000803e3d6000fd5b50905060008173ffffffffffffffffffffffffffffffffffffffff1663e0c862896040518163ffffffff1660e01b8152600401602060405180830381600087803b1580156200042457600080fd5b505af115801562000439573d6000803e3d6000fd5b505050506040513d601f19601f820116820180604052508101906200045f919062001295565b90507f8122a65d33d8c7ad842fe4edeb9e83a70a705460949bed1a3d6848e8e280f6d28160405162000492919062000e2d565b60405180910390a15050565b6000600160003373ffffffffffffffffffffffffffffffffffffffff1673ffffffffffffffffffffffffffffffffffffffff168152602001908152602001600020541462000523576040517f08c379a00000000000000000000000000000000000000000000000000000000081526004016200051a9062001328565b60405180910390fd5b6000336040516020016200053891906200139a565b604051602081830303815290604052805190602001209050620005be838380806020026020016040519081016040528093929190818152602001838360200280828437600081840152601f19601f820116905080830192505050505050507f0000000000000000000000000000000000000000000000000000000000000000836200094a565b620006085760018060003373ffffffffffffffffffffffffffffffffffffffff1673ffffffffffffffffffffffffffffffffffffffff168152602001908152602001600020819055505b7f000000000000000000000000000000000000000000000000000000000000000073ffffffffffffffffffffffffffffffffffffffff1663a9059cbb336000546040518363ffffffff1660e01b815260040162000667929190620013b7565b602060405180830381600087803b1580156200068257600080fd5b505af115801562000697573d6000803e3d6000fd5b505050506040513d601f19601f82011682018060405250810190620006bd919062001415565b620006ff576040517f08c379a0000000000000000000000000000000000000000000000000000000008152600401620006f69062001497565b60405180910390fd5b3373ffffffffffffffffffffffffffffffffffffffff167fc738b2de230010873d5b81370b4c10250e8eaec27550f0c43faf979e0930908360005460405162000749919062000e2d565b60405180910390a2505050565b600063bc197c8160e01b905095945050505050565b6000336040516020016200078091906200139a565b60405160208183030381529060405280519060200120905062000806838380806020026020016040519081016040528093929190818152602001838360200280828437600081840152601f19601f820116905080830192505050505050507f0000000000000000000000000000000000000000000000000000000000000000836200094a565b6200089f577f000000000000000000000000000000000000000000000000000000000000000073ffffffffffffffffffffffffffffffffffffffff1663b88d4fde8787876040518463ffffffff1660e01b81526004016200086a939291906200151a565b600060405180830381600087803b1580156200088557600080fd5b505af11580156200089a573d6000803e3d6000fd5b505050505b505050505050565b7f000000000000000000000000000000000000000000000000000000000000000081565b600063f23a6e6160e01b905095945050505050565b60007f01ffc9a7000000000000000000000000000000000000000000000000000000007bffffffffffffffffffffffffffffffffffffffffffffffffffffffff1916827bffffffffffffffffffffffffffffffffffffffffffffffffffffffff1916149050919050565b60008262000959858462000963565b1490509392505050565b60008082905060005b8451811015620009b7576200099f828683815181106200099157620009906200156c565b5b6020026020010151620009c2565b91508080620009ae90620015ca565b9150506200096c565b508091505092915050565b6000818310620009de57620009d88284620009f3565b620009eb565b620009ea8383620009f3565b5b905092915050565b600082600052816020526040600020905092915050565b61188d806200161983390190565b6000604051905090565b600080fd5b600080fd5b60007fffffffff0000000000000000000000000000000000000000000000000000000082169050919050565b62000a638162000a2c565b811462000a6f57600080fd5b50565b60008135905062000a838162000a58565b92915050565b60006020828403121562000aa25762000aa162000a22565b5b600062000ab28482850162000a72565b91505092915050565b60008115159050919050565b62000ad28162000abb565b82525050565b600060208201905062000aef600083018462000ac7565b92915050565b600073ffffffffffffffffffffffffffffffffffffffff82169050919050565b600062000b228262000af5565b9050919050565b62000b348162000b15565b82525050565b600060208201905062000b51600083018462000b29565b92915050565b62000b628162000b15565b811462000b6e57600080fd5b50565b60008135905062000b828162000b57565b92915050565b6000819050919050565b62000b9d8162000b88565b811462000ba957600080fd5b50565b60008135905062000bbd8162000b92565b92915050565b600080fd5b600080fd5b6000601f19601f8301169050919050565b7f4e487b7100000000000000000000000000000000000000000000000000000000600052604160045260246000fd5b62000c188262000bcd565b810181811067ffffffffffffffff8211171562000c3a5762000c3962000bde565b5b80604052505050565b600062000c4f62000a18565b905062000c5d828262000c0d565b919050565b600067ffffffffffffffff82111562000c805762000c7f62000bde565b5b62000c8b8262000bcd565b9050602081019050919050565b82818337600083830152505050565b600062000cbe62000cb88462000c62565b62000c43565b90508281526020810184848401111562000cdd5762000cdc62000bc8565b5b62000cea84828562000c98565b509392505050565b600082601f83011262000d0a5762000d0962000bc3565b5b813562000d1c84826020860162000ca7565b91505092915050565b6000806000806080858703121562000d425762000d4162000a22565b5b600062000d528782880162000b71565b945050602062000d658782880162000b71565b935050604062000d788782880162000bac565b925050606085013567ffffffffffffffff81111562000d9c5762000d9b62000a27565b5b62000daa8782880162000cf2565b91505092959194509250565b62000dc18162000a2c565b82525050565b600060208201905062000dde600083018462000db6565b92915050565b6000819050919050565b62000df98162000de4565b82525050565b600060208201905062000e16600083018462000dee565b92915050565b62000e278162000b88565b82525050565b600060208201905062000e44600083018462000e1c565b92915050565b600080fd5b600080fd5b60008083601f84011262000e6d5762000e6c62000bc3565b5b8235905067ffffffffffffffff81111562000e8d5762000e8c62000e4a565b5b60208301915083602082028301111562000eac5762000eab62000e4f565b5b9250929050565b6000806020838503121562000ecd5762000ecc62000a22565b5b600083013567ffffffffffffffff81111562000eee5762000eed62000a27565b5b62000efc8582860162000e54565b92509250509250929050565b600067ffffffffffffffff82111562000f265762000f2562000bde565b5b602082029050602081019050919050565b600062000f4e62000f488462000f08565b62000c43565b9050808382526020820190506020840283018581111562000f745762000f7362000e4f565b5b835b8181101562000fa1578062000f8c888262000bac565b84526020840193505060208101905062000f76565b5050509392505050565b600082601f83011262000fc35762000fc262000bc3565b5b813562000fd584826020860162000f37565b91505092915050565b600080600080600060a0868803121562000ffd5762000ffc62000a22565b5b60006200100d8882890162000b71565b9550506020620010208882890162000b71565b945050604086013567ffffffffffffffff81111562001044576200104362000a27565b5b620010528882890162000fab565b935050606086013567ffffffffffffffff81111562001076576200107562000a27565b5b620010848882890162000fab565b925050608086013567ffffffffffffffff811115620010a857620010a762000a27565b5b620010b68882890162000cf2565b9150509295509295909350565b600080600080600060808688031215620010e257620010e162000a22565b5b6000620010f28882890162000b71565b9550506020620011058882890162000b71565b9450506040620011188882890162000bac565b935050606086013567ffffffffffffffff8111156200113c576200113b62000a27565b5b6200114a8882890162000e54565b92509250509295509295909350565b600080600080600060a0868803121562001178576200117762000a22565b5b6000620011888882890162000b71565b95505060206200119b8882890162000b71565b9450506040620011ae8882890162000bac565b9350506060620011c18882890162000bac565b925050608086013567ffffffffffffffff811115620011e557620011e462000a27565b5b620011f38882890162000cf2565b9150509295509295909350565b6000819050919050565b600067ffffffffffffffff82169050919050565b6000819050919050565b600062001249620012436200123d8462001200565b6200121e565b6200120a565b9050919050565b6200125b8162001228565b82525050565b600060208201905062001278600083018462001250565b92915050565b6000815190506200128f8162000b92565b92915050565b600060208284031215620012ae57620012ad62000a22565b5b6000620012be848285016200127e565b91505092915050565b600082825260208201905092915050565b7f436c61696d656420455243323000000000000000000000000000000000000000600082015250565b600062001310600d83620012c7565b91506200131d82620012d8565b602082019050919050565b60006020820190508181036000830152620013438162001301565b9050919050565b60008160601b9050919050565b600062001364826200134a565b9050919050565b6000620013788262001357565b9050919050565b620013946200138e8262000b15565b6200136b565b82525050565b6000620013a882846200137f565b60148201915081905092915050565b6000604082019050620013ce600083018562000b29565b620013dd602083018462000e1c565b9392505050565b620013ef8162000abb565b8114620013fb57600080fd5b50565b6000815190506200140f81620013e4565b92915050565b6000602082840312156200142e576200142d62000a22565b5b60006200143e84828501620013fe565b91505092915050565b7f5472616e73666572206661696c65640000000000000000000000000000000000600082015250565b60006200147f600f83620012c7565b91506200148c8262001447565b602082019050919050565b60006020820190508181036000830152620014b28162001470565b9050919050565b600082825260208201905092915050565b7f3078000000000000000000000000000000000000000000000000000000000000600082015250565b600062001502600283620014b9565b91506200150f82620014ca565b602082019050919050565b600060808201905062001531600083018662000b29565b62001540602083018562000b29565b6200154f604083018462000e1c565b81810360608301526200156281620014f3565b9050949350505050565b7f4e487b7100000000000000000000000000000000000000000000000000000000600052603260045260246000fd5b7f4e487b7100000000000000000000000000000000000000000000000000000000600052601160045260246000fd5b6000620015d78262000b88565b91507fffffffffffffffffffffffffffffffffffffffffffffffffffffffffffffffff8214156200160d576200160c6200159b565b5b60018201905091905056fe60a06040527f474e34a077df58807dbe9c96d3c009b23b3c6d0cce433e59bbf5b34f823bc56c60001b600655620186a0600760006101000a81548163ffffffff021916908363ffffffff1602179055506003600760046101000a81548161ffff021916908361ffff1602179055506002600760066101000a81548163ffffffff021916908363ffffffff1602179055503480156200009c57600080fd5b506040516200188d3803806200188d8339818101604052810190620000c291906200040c565b33806000738103b0a8a00be2ddc778e6e7eaa21791cd3646258073ffffffffffffffffffffffffffffffffffffffff1660808173ffffffffffffffffffffffffffffffffffffffff168152505050600073ffffffffffffffffffffffffffffffffffffffff168273ffffffffffffffffffffffffffffffffffffffff16141562000183576040517f08c379a00000000000000000000000000000000000000000000000000000000081526004016200017a906200049f565b60405180910390fd5b816000806101000a81548173ffffffffffffffffffffffffffffffffffffffff021916908373ffffffffffffffffffffffffffffffffffffffff160217905550600073ffffffffffffffffffffffffffffffffffffffff168173ffffffffffffffffffffffffffffffffffffffff16146200020a5762000209816200029260201b60201c565b5b505050738103b0a8a00be2ddc778e6e7eaa21791cd364625600360006101000a81548173ffffffffffffffffffffffffffffffffffffffff021916908373ffffffffffffffffffffffffffffffffffffffff16021790555080600360146101000a81548167ffffffffffffffff021916908367ffffffffffffffff1602179055505062000533565b3373ffffffffffffffffffffffffffffffffffffffff168173ffffffffffffffffffffffffffffffffffffffff16141562000304576040517f08c379a0000000000000000000000000000000000000000000000000000000008152600401620002fb9062000511565b60405180910390fd5b80600160006101000a81548173ffffffffffffffffffffffffffffffffffffffff021916908373ffffffffffffffffffffffffffffffffffffffff1602179055508073ffffffffffffffffffffffffffffffffffffffff1660008054906101000a900473ffffffffffffffffffffffffffffffffffffffff1673ffffffffffffffffffffffffffffffffffffffff167fed8889f560326eb138920d842192f0eb3dd22b4f139c87a2c57538e05bae127860405160405180910390a350565b600080fd5b600067ffffffffffffffff82169050919050565b620003e681620003c7565b8114620003f257600080fd5b50565b6000815190506200040681620003db565b92915050565b600060208284031215620004255762000424620003c2565b5b60006200043584828501620003f5565b91505092915050565b600082825260208201905092915050565b7f43616e6e6f7420736574206f776e657220746f207a65726f0000000000000000600082015250565b6000620004876018836200043e565b915062000494826200044f565b602082019050919050565b60006020820190508181036000830152620004ba8162000478565b9050919050565b7f43616e6e6f74207472616e7366657220746f2073656c66000000000000000000600082015250565b6000620004f96017836200043e565b91506200050682620004c1565b602082019050919050565b600060208201905081810360008301526200052c81620004ea565b9050919050565b60805161133762000556600039600081816101c8015261021c01526113376000f3fe608060405234801561001057600080fd5b50600436106100935760003560e01c8063a168fa8911610066578063a168fa891461010c578063d8a4676f1461013d578063e0c862891461016e578063f2fde38b1461018c578063fc2a88c3146101a857610093565b80631fe543e31461009857806379ba5097146100b45780638796ba8c146100be5780638da5cb5b146100ee575b600080fd5b6100b260048036038101906100ad9190610d17565b6101c6565b005b6100bc610286565b005b6100d860048036038101906100d39190610d73565b61041b565b6040516100e59190610daf565b60405180910390f35b6100f661043f565b6040516101039190610e0b565b60405180910390f35b61012660048036038101906101219190610d73565b610468565b604051610134929190610e41565b60405180910390f35b61015760048036038101906101529190610d73565b6104a6565b604051610165929190610f28565b60405180910390f35b6101766105d1565b6040516101839190610daf565b60405180910390f35b6101a660048036038101906101a19190610f84565b610839565b005b6101b061084d565b6040516101bd9190610daf565b60405180910390f35b7f000000000000000000000000000000000000000000000000000000000000000073ffffffffffffffffffffffffffffffffffffffff163373ffffffffffffffffffffffffffffffffffffffff161461027857337f00000000000000000000000000000000000000000000000000000000000000006040517f1cf993f400000000000000000000000000000000000000000000000000000000815260040161026f929190610fb1565b60405180910390fd5b6102828282610853565b5050565b600160009054906101000a900473ffffffffffffffffffffffffffffffffffffffff1673ffffffffffffffffffffffffffffffffffffffff163373ffffffffffffffffffffffffffffffffffffffff1614610316576040517f08c379a000000000000000000000000000000000000000000000000000000000815260040161030d90611037565b60405180910390fd5b60008060009054906101000a900473ffffffffffffffffffffffffffffffffffffffff169050336000806101000a81548173ffffffffffffffffffffffffffffffffffffffff021916908373ffffffffffffffffffffffffffffffffffffffff1602179055506000600160006101000a81548173ffffffffffffffffffffffffffffffffffffffff021916908373ffffffffffffffffffffffffffffffffffffffff1602179055503373ffffffffffffffffffffffffffffffffffffffff168173ffffffffffffffffffffffffffffffffffffffff167f8be0079c531659141344cd1fd0a4f28419497f9722a3daafe3b4186f6b6457e060405160405180910390a350565b6004818154811061042b57600080fd5b906000526020600020016000915090505481565b60008060009054906101000a900473ffffffffffffffffffffffffffffffffffffffff16905090565b60026020528060005260406000206000915090508060000160009054906101000a900460ff16908060000160019054906101000a900460ff16905082565b600060606002600084815260200190815260200160002060000160019054906101000a900460ff1661050d576040517f08c379a0000000000000000000000000000000000000000000000000000000008152600401610504906110a3565b60405180910390fd5b6000600260008581526020019081526020016000206040518060600160405290816000820160009054906101000a900460ff161515151581526020016000820160019054906101000a900460ff16151515158152602001600182018054806020026020016040519081016040528092919081815260200182805480156105b257602002820191906000526020600020905b81548152602001906001019080831161059e575b5050505050815250509050806000015181604001519250925050915091565b60006105db61094d565b600360009054906101000a900473ffffffffffffffffffffffffffffffffffffffff1673ffffffffffffffffffffffffffffffffffffffff16635d3b1d30600654600360149054906101000a900467ffffffffffffffff16600760049054906101000a900461ffff16600760009054906101000a900463ffffffff16600760069054906101000a900463ffffffff166040518663ffffffff1660e01b815260040161068a95949392919061113b565b602060405180830381600087803b1580156106a457600080fd5b505af11580156106b8573d6000803e3d6000fd5b505050506040513d601f19601f820116820180604052508101906106dc91906111a3565b90506040518060600160405280600015158152602001600115158152602001600067ffffffffffffffff81111561071657610715610bd4565b5b6040519080825280602002602001820160405280156107445781602001602082028036833780820191505090505b508152506002600083815260200190815260200160002060008201518160000160006101000a81548160ff02191690831515021790555060208201518160000160016101000a81548160ff02191690831515021790555060408201518160010190805190602001906107b7929190610b0a565b509050506004819080600181540180825580915050600190039060005260206000200160009091909190915055806005819055507fcc58b13ad3eab50626c6a6300b1d139cd6ebb1688a7cced9461c2f7e762665ee81600760069054906101000a900463ffffffff1660405161082e9291906111d0565b60405180910390a190565b61084161094d565b61084a816109dd565b50565b60055481565b6002600083815260200190815260200160002060000160019054906101000a900460ff166108b6576040517f08c379a00000000000000000000000000000000000000000000000000000000081526004016108ad906110a3565b60405180910390fd5b60016002600084815260200190815260200160002060000160006101000a81548160ff0219169083151502179055508060026000848152602001908152602001600020600101908051906020019061090f929190610b0a565b507ffe2e2d779dba245964d4e3ef9b994be63856fd568bf7d3ca9e224755cb1bd54d82826040516109419291906111f9565b60405180910390a15050565b60008054906101000a900473ffffffffffffffffffffffffffffffffffffffff1673ffffffffffffffffffffffffffffffffffffffff163373ffffffffffffffffffffffffffffffffffffffff16146109db576040517f08c379a00000000000000000000000000000000000000000000000000000000081526004016109d290611275565b60405180910390fd5b565b3373ffffffffffffffffffffffffffffffffffffffff168173ffffffffffffffffffffffffffffffffffffffff161415610a4c576040517f08c379a0000000000000000000000000000000000000000000000000000000008152600401610a43906112e1565b60405180910390fd5b80600160006101000a81548173ffffffffffffffffffffffffffffffffffffffff021916908373ffffffffffffffffffffffffffffffffffffffff1602179055508073ffffffffffffffffffffffffffffffffffffffff1660008054906101000a900473ffffffffffffffffffffffffffffffffffffffff1673ffffffffffffffffffffffffffffffffffffffff167fed8889f560326eb138920d842192f0eb3dd22b4f139c87a2c57538e05bae127860405160405180910390a350565b828054828255906000526020600020908101928215610b46579160200282015b82811115610b45578251825591602001919060010190610b2a565b5b509050610b539190610b57565b5090565b5b80821115610b70576000816000905550600101610b58565b5090565b6000604051905090565b600080fd5b600080fd5b6000819050919050565b610b9b81610b88565b8114610ba657600080fd5b50565b600081359050610bb881610b92565b92915050565b600080fd5b6000601f19601f8301169050919050565b7f4e487b7100000000000000000000000000000000000000000000000000000000600052604160045260246000fd5b610c0c82610bc3565b810181811067ffffffffffffffff82111715610c2b57610c2a610bd4565b5b80604052505050565b6000610c3e610b74565b9050610c4a8282610c03565b919050565b600067ffffffffffffffff821115610c6a57610c69610bd4565b5b602082029050602081019050919050565b600080fd5b6000610c93610c8e84610c4f565b610c34565b90508083825260208201905060208402830185811115610cb657610cb5610c7b565b5b835b81811015610cdf5780610ccb8882610ba9565b845260208401935050602081019050610cb8565b5050509392505050565b600082601f830112610cfe57610cfd610bbe565b5b8135610d0e848260208601610c80565b91505092915050565b60008060408385031215610d2e57610d2d610b7e565b5b6000610d3c85828601610ba9565b925050602083013567ffffffffffffffff811115610d5d57610d5c610b83565b5b610d6985828601610ce9565b9150509250929050565b600060208284031215610d8957610d88610b7e565b5b6000610d9784828501610ba9565b91505092915050565b610da981610b88565b82525050565b6000602082019050610dc46000830184610da0565b92915050565b600073ffffffffffffffffffffffffffffffffffffffff82169050919050565b6000610df582610dca565b9050919050565b610e0581610dea565b82525050565b6000602082019050610e206000830184610dfc565b92915050565b60008115159050919050565b610e3b81610e26565b82525050565b6000604082019050610e566000830185610e32565b610e636020830184610e32565b9392505050565b600081519050919050565b600082825260208201905092915050565b6000819050602082019050919050565b610e9f81610b88565b82525050565b6000610eb18383610e96565b60208301905092915050565b6000602082019050919050565b6000610ed582610e6a565b610edf8185610e75565b9350610eea83610e86565b8060005b83811015610f1b578151610f028882610ea5565b9750610f0d83610ebd565b925050600181019050610eee565b5085935050505092915050565b6000604082019050610f3d6000830185610e32565b8181036020830152610f4f8184610eca565b90509392505050565b610f6181610dea565b8114610f6c57600080fd5b50565b600081359050610f7e81610f58565b92915050565b600060208284031215610f9a57610f99610b7e565b5b6000610fa884828501610f6f565b91505092915050565b6000604082019050610fc66000830185610dfc565b610fd36020830184610dfc565b9392505050565b600082825260208201905092915050565b7f4d7573742062652070726f706f736564206f776e657200000000000000000000600082015250565b6000611021601683610fda565b915061102c82610feb565b602082019050919050565b6000602082019050818103600083015261105081611014565b9050919050565b7f72657175657374206e6f7420666f756e64000000000000000000000000000000600082015250565b600061108d601183610fda565b915061109882611057565b602082019050919050565b600060208201905081810360008301526110bc81611080565b9050919050565b6000819050919050565b6110d6816110c3565b82525050565b600067ffffffffffffffff82169050919050565b6110f9816110dc565b82525050565b600061ffff82169050919050565b611116816110ff565b82525050565b600063ffffffff82169050919050565b6111358161111c565b82525050565b600060a08201905061115060008301886110cd565b61115d60208301876110f0565b61116a604083018661110d565b611177606083018561112c565b611184608083018461112c565b9695505050505050565b60008151905061119d81610b92565b92915050565b6000602082840312156111b9576111b8610b7e565b5b60006111c78482850161118e565b91505092915050565b60006040820190506111e56000830185610da0565b6111f2602083018461112c565b9392505050565b600060408201905061120e6000830185610da0565b81810360208301526112208184610eca565b90509392505050565b7f4f6e6c792063616c6c61626c65206279206f776e657200000000000000000000600082015250565b600061125f601683610fda565b915061126a82611229565b602082019050919050565b6000602082019050818103600083015261128e81611252565b9050919050565b7f43616e6e6f74207472616e7366657220746f2073656c66000000000000000000600082015250565b60006112cb601783610fda565b91506112d682611295565b602082019050919050565b600060208201905081810360008301526112fa816112be565b905091905056fea2646970667358221220d3018a7aa3c4db0d06c8dd740f8b6beaf3b7d966ff921d34c73239c6c64bf39564736f6c63430008090033a264697066735822122012162467d30fd839663067d49dfad82775dc18b293a57989ae791138c00b294064736f6c63430008090033",
  "linkReferences": {},
  "deployedLinkReferences": {}
}