{"contracts/MerkleDistributor.sol":{"MerkleDistributor":{"abi":[{"inputs":[{"internalType":"address","name":"token_","type":"address"},{"internalType":"address","name":"token721_","type":"address"},{"internalType":"address","name":"token1155_","type":"address"},{"internalType":"bytes32","name":"merkleRoot_","type":"bytes32"},{"internalType":"uint256","name":"dropERC20_","type":"uint256"}],"stateMutability":"nonpayable","type":"constructor"},{"anonymous":false,"inputs":[{"indexed":true,"internalType":"address","name":"_from","type":"address"},{"indexed":false,"internalType":"uint256","name":"_dropERC20","type":"uint256"}],"name":"ClaimedERC20","type":"event"},{"inputs":[{"internalType":"bytes32[]","name":"merkleProof","type":"bytes32[]"}],"name":"claim","outputs":[],"stateMutability":"nonpayable","type":"function"},{"inputs":[],"name":"dropERC20","outputs":[{"internalType":"uint256","name":"","type":"uint256"}],"stateMutability":"view","type":"function"},{"inputs":[],"name":"merkleRoot","outputs":[{"internalType":"bytes32","name":"","type":"bytes32"}],"stateMutability":"view","type":"function"},{"inputs":[{"internalType":"address","name":"","type":"address"},{"internalType":"address","name":"","type":"address"},{"internalType":"uint256","name":"","type":"uint256"},{"internalType":"bytes","name":"","type":"bytes"}],"name":"onERC721Received","outputs":[{"internalType":"bytes4","name":"","type":"bytes4"}],"stateMutability":"nonpayable","type":"function"},{"inputs":[],"name":"tokenERC1155","outputs":[{"internalType":"address","name":"","type":"address"}],"stateMutability":"view","type":"function"},{"inputs":[],"name":"tokenERC20","outputs":[{"internalType":"address","name":"","type":"address"}],"stateMutability":"view","type":"function"},{"inputs":[],"name":"tokenERC721","outputs":[{"internalType":"address","name":"","type":"address"}],"stateMutability":"view","type":"function"}],"evm":{"bytecode":{"linkReferences":{},"object":"6101006040523480156200001257600080fd5b5060405162000eb338038062000eb38339818101604052810190620000389190620001ce565b8473ffffffffffffffffffffffffffffffffffffffff1660808173ffffffffffffffffffffffffffffffffffffffff16815250508373ffffffffffffffffffffffffffffffffffffffff1660a08173ffffffffffffffffffffffffffffffffffffffff16815250508273ffffffffffffffffffffffffffffffffffffffff1660c08173ffffffffffffffffffffffffffffffffffffffff16815250508160e0818152505080600081905550505050505062000256565b600080fd5b600073ffffffffffffffffffffffffffffffffffffffff82169050919050565b60006200012082620000f3565b9050919050565b620001328162000113565b81146200013e57600080fd5b50565b600081519050620001528162000127565b92915050565b6000819050919050565b6200016d8162000158565b81146200017957600080fd5b50565b6000815190506200018d8162000162565b92915050565b6000819050919050565b620001a88162000193565b8114620001b457600080fd5b50565b600081519050620001c8816200019d565b92915050565b600080600080600060a08688031215620001ed57620001ec620000ee565b5b6000620001fd8882890162000141565b9550506020620002108882890162000141565b9450506040620002238882890162000141565b935050606062000236888289016200017c565b92505060806200024988828901620001b7565b9150509295509295909350565b60805160a05160c05160e051610c156200029e6000396000818161019e01526102de01526000610166015260006104910152600081816101c8015261034e0152610c156000f3fe608060405234801561001057600080fd5b506004361061007d5760003560e01c806373f95d6b1161005b57806373f95d6b146100ee5780639d143e8e1461010c578063b391c5081461012a578063e9adc770146101465761007d565b806309c33c6714610082578063150b7a02146100a05780632eb4a7ab146100d0575b600080fd5b61008a610164565b60405161009791906105a3565b60405180910390f35b6100ba60048036038101906100b5919061077a565b610188565b6040516100c79190610838565b60405180910390f35b6100d861019c565b6040516100e5919061086c565b60405180910390f35b6100f66101c0565b6040516101039190610896565b60405180910390f35b6101146101c6565b60405161012191906105a3565b60405180910390f35b610144600480360381019061013f9190610911565b6101ea565b005b61014e61048f565b60405161015b91906105a3565b60405180910390f35b7f000000000000000000000000000000000000000000000000000000000000000081565b600063150b7a0260e01b9050949350505050565b7f000000000000000000000000000000000000000000000000000000000000000081565b60005481565b7f000000000000000000000000000000000000000000000000000000000000000081565b6000600160003373ffffffffffffffffffffffffffffffffffffffff1673ffffffffffffffffffffffffffffffffffffffff168152602001908152602001600020541461026c576040517f08c379a0000000000000000000000000000000000000000000000000000000008152600401610263906109bb565b60405180910390fd5b60003360405160200161027f9190610a23565b604051602081830303815290604052805190602001209050610303838380806020026020016040519081016040528093929190818152602001838360200280828437600081840152601f19601f820116905080830192505050505050507f0000000000000000000000000000000000000000000000000000000000000000836104b3565b61034c5760018060003373ffffffffffffffffffffffffffffffffffffffff1673ffffffffffffffffffffffffffffffffffffffff168152602001908152602001600020819055505b7f000000000000000000000000000000000000000000000000000000000000000073ffffffffffffffffffffffffffffffffffffffff1663a9059cbb336000546040518363ffffffff1660e01b81526004016103a9929190610a3e565b602060405180830381600087803b1580156103c357600080fd5b505af11580156103d7573d6000803e3d6000fd5b505050506040513d601f19601f820116820180604052508101906103fb9190610a9f565b61043a576040517f08c379a000000000000000000000000000000000000000000000000000000000815260040161043190610b18565b60405180910390fd5b3373ffffffffffffffffffffffffffffffffffffffff167fc738b2de230010873d5b81370b4c10250e8eaec27550f0c43faf979e093090836000546040516104829190610896565b60405180910390a2505050565b7f000000000000000000000000000000000000000000000000000000000000000081565b6000826104c085846104ca565b1490509392505050565b60008082905060005b845181101561051557610500828683815181106104f3576104f2610b38565b5b6020026020010151610520565b9150808061050d90610b96565b9150506104d3565b508091505092915050565b600081831061053857610533828461054b565b610543565b610542838361054b565b5b905092915050565b600082600052816020526040600020905092915050565b600073ffffffffffffffffffffffffffffffffffffffff82169050919050565b600061058d82610562565b9050919050565b61059d81610582565b82525050565b60006020820190506105b86000830184610594565b92915050565b6000604051905090565b600080fd5b600080fd5b6105db81610582565b81146105e657600080fd5b50565b6000813590506105f8816105d2565b92915050565b6000819050919050565b610611816105fe565b811461061c57600080fd5b50565b60008135905061062e81610608565b92915050565b600080fd5b600080fd5b6000601f19601f8301169050919050565b7f4e487b7100000000000000000000000000000000000000000000000000000000600052604160045260246000fd5b6106878261063e565b810181811067ffffffffffffffff821117156106a6576106a561064f565b5b80604052505050565b60006106b96105be565b90506106c5828261067e565b919050565b600067ffffffffffffffff8211156106e5576106e461064f565b5b6106ee8261063e565b9050602081019050919050565b82818337600083830152505050565b600061071d610718846106ca565b6106af565b90508281526020810184848401111561073957610738610639565b5b6107448482856106fb565b509392505050565b600082601f83011261076157610760610634565b5b813561077184826020860161070a565b91505092915050565b60008060008060808587031215610794576107936105c8565b5b60006107a2878288016105e9565b94505060206107b3878288016105e9565b93505060406107c48782880161061f565b925050606085013567ffffffffffffffff8111156107e5576107e46105cd565b5b6107f18782880161074c565b91505092959194509250565b60007fffffffff0000000000000000000000000000000000000000000000000000000082169050919050565b610832816107fd565b82525050565b600060208201905061084d6000830184610829565b92915050565b6000819050919050565b61086681610853565b82525050565b6000602082019050610881600083018461085d565b92915050565b610890816105fe565b82525050565b60006020820190506108ab6000830184610887565b92915050565b600080fd5b600080fd5b60008083601f8401126108d1576108d0610634565b5b8235905067ffffffffffffffff8111156108ee576108ed6108b1565b5b60208301915083602082028301111561090a576109096108b6565b5b9250929050565b60008060208385031215610928576109276105c8565b5b600083013567ffffffffffffffff811115610946576109456105cd565b5b610952858286016108bb565b92509250509250929050565b600082825260208201905092915050565b7f436c61696d656420455243323000000000000000000000000000000000000000600082015250565b60006109a5600d8361095e565b91506109b08261096f565b602082019050919050565b600060208201905081810360008301526109d481610998565b9050919050565b60008160601b9050919050565b60006109f3826109db565b9050919050565b6000610a05826109e8565b9050919050565b610a1d610a1882610582565b6109fa565b82525050565b6000610a2f8284610a0c565b60148201915081905092915050565b6000604082019050610a536000830185610594565b610a606020830184610887565b9392505050565b60008115159050919050565b610a7c81610a67565b8114610a8757600080fd5b50565b600081519050610a9981610a73565b92915050565b600060208284031215610ab557610ab46105c8565b5b6000610ac384828501610a8a565b91505092915050565b7f5472616e73666572206661696c65640000000000000000000000000000000000600082015250565b6000610b02600f8361095e565b9150610b0d82610acc565b602082019050919050565b60006020820190508181036000830152610b3181610af5565b9050919050565b7f4e487b7100000000000000000000000000000000000000000000000000000000600052603260045260246000fd5b7f4e487b7100000000000000000000000000000000000000000000000000000000600052601160045260246000fd5b6000610ba1826105fe565b91507fffffffffffffffffffffffffffffffffffffffffffffffffffffffffffffffff821415610bd457610bd3610b67565b5b60018201905091905056fea264697066735822122070ca3ce5abdd59d39f6ececdc0e1ab379472a2ac9cb307468f60cbaa25b0bafc64736f6c63430008090033","opcodes":"PUSH2 0x100 PUSH1 0x40 MSTORE CALLVALUE DUP1 ISZERO PUSH3 0x12 JUMPI PUSH1 0x0 DUP1 REVERT JUMPDEST POP PUSH1 0x40 MLOAD PUSH3 0xEB3 CODESIZE SUB DUP1 PUSH3 0xEB3 DUP4 CODECOPY DUP2 DUP2 ADD PUSH1 0x40 MSTORE DUP2 ADD SWAP1 PUSH3 0x38 SWAP2 SWAP1 PUSH3 0x1CE JUMP JUMPDEST DUP5 PUSH20 0xFFFFFFFFFFFFFFFFFFFFFFFFFFFFFFFFFFFFFFFF AND PUSH1 0x80 DUP2 PUSH20 0xFFFFFFFFFFFFFFFFFFFFFFFFFFFFFFFFFFFFFFFF AND DUP2 MSTORE POP POP DUP4 PUSH20 0xFFFFFFFFFFFFFFFFFFFFFFFFFFFFFFFFFFFFFFFF AND PUSH1 0xA0 DUP2 PUSH20 0xFFFFFFFFFFFFFFFFFFFFFFFFFFFFFFFFFFFFFFFF AND DUP2 MSTORE POP POP DUP3 PUSH20 0xFFFFFFFFFFFFFFFFFFFFFFFFFFFFFFFFFFFFFFFF AND PUSH1 0xC0 DUP2 PUSH20 0xFFFFFFFFFFFFFFFFFFFFFFFFFFFFFFFFFFFFFFFF AND DUP2 MSTORE POP POP DUP2 PUSH1 0xE0 DUP2 DUP2 MSTORE POP POP DUP1 PUSH1 0x0 DUP2 SWAP1 SSTORE POP POP POP POP POP POP PUSH3 0x256 JUMP JUMPDEST PUSH1 0x0 DUP1 REVERT JUMPDEST PUSH1 0x0 PUSH20 0xFFFFFFFFFFFFFFFFFFFFFFFFFFFFFFFFFFFFFFFF DUP3 AND SWAP1 POP SWAP2 SWAP1 POP JUMP JUMPDEST PUSH1 0x0 PUSH3 0x120 DUP3 PUSH3 0xF3 JUMP JUMPDEST SWAP1 POP SWAP2 SWAP1 POP JUMP JUMPDEST PUSH3 0x132 DUP2 PUSH3 0x113 JUMP JUMPDEST DUP2 EQ PUSH3 0x13E JUMPI PUSH1 0x0 DUP1 REVERT JUMPDEST POP JUMP JUMPDEST PUSH1 0x0 DUP2 MLOAD SWAP1 POP PUSH3 0x152 DUP2 PUSH3 0x127 JUMP JUMPDEST SWAP3 SWAP2 POP POP JUMP JUMPDEST PUSH1 0x0 DUP2 SWAP1 POP SWAP2 SWAP1 POP JUMP JUMPDEST PUSH3 0x16D DUP2 PUSH3 0x158 JUMP JUMPDEST DUP2 EQ PUSH3 0x179 JUMPI PUSH1 0x0 DUP1 REVERT JUMPDEST POP JUMP JUMPDEST PUSH1 0x0 DUP2 MLOAD SWAP1 POP PUSH3 0x18D DUP2 PUSH3 0x162 JUMP JUMPDEST SWAP3 SWAP2 POP POP JUMP JUMPDEST PUSH1 0x0 DUP2 SWAP1 POP SWAP2 SWAP1 POP JUMP JUMPDEST PUSH3 0x1A8 DUP2 PUSH3 0x193 JUMP JUMPDEST DUP2 EQ PUSH3 0x1B4 JUMPI PUSH1 0x0 DUP1 REVERT JUMPDEST POP JUMP JUMPDEST PUSH1 0x0 DUP2 MLOAD SWAP1 POP PUSH3 0x1C8 DUP2 PUSH3 0x19D JUMP JUMPDEST SWAP3 SWAP2 POP POP JUMP JUMPDEST PUSH1 0x0 DUP1 PUSH1 0x0 DUP1 PUSH1 0x0 PUSH1 0xA0 DUP7 DUP9 SUB SLT ISZERO PUSH3 0x1ED JUMPI PUSH3 0x1EC PUSH3 0xEE JUMP JUMPDEST JUMPDEST PUSH1 0x0 PUSH3 0x1FD DUP9 DUP3 DUP10 ADD PUSH3 0x141 JUMP JUMPDEST SWAP6 POP POP PUSH1 0x20 PUSH3 0x210 DUP9 DUP3 DUP10 ADD PUSH3 0x141 JUMP JUMPDEST SWAP5 POP POP PUSH1 0x40 PUSH3 0x223 DUP9 DUP3 DUP10 ADD PUSH3 0x141 JUMP JUMPDEST SWAP4 POP POP PUSH1 0x60 PUSH3 0x236 DUP9 DUP3 DUP10 ADD PUSH3 0x17C JUMP JUMPDEST SWAP3 POP POP PUSH1 0x80 PUSH3 0x249 DUP9 DUP3 DUP10 ADD PUSH3 0x1B7 JUMP JUMPDEST SWAP2 POP POP SWAP3 SWAP6 POP SWAP3 SWAP6 SWAP1 SWAP4 POP JUMP JUMPDEST PUSH1 0x80 MLOAD PUSH1 0xA0 MLOAD PUSH1 0xC0 MLOAD PUSH1 0xE0 MLOAD PUSH2 0xC15 PUSH3 0x29E PUSH1 0x0 CODECOPY PUSH1 0x0 DUP2 DUP2 PUSH2 0x19E ADD MSTORE PUSH2 0x2DE ADD MSTORE PUSH1 0x0 PUSH2 0x166 ADD MSTORE PUSH1 0x0 PUSH2 0x491 ADD MSTORE PUSH1 0x0 DUP2 DUP2 PUSH2 0x1C8 ADD MSTORE PUSH2 0x34E ADD MSTORE PUSH2 0xC15 PUSH1 0x0 RETURN INVALID PUSH1 0x80 PUSH1 0x40 MSTORE CALLVALUE DUP1 ISZERO PUSH2 0x10 JUMPI PUSH1 0x0 DUP1 REVERT JUMPDEST POP PUSH1 0x4 CALLDATASIZE LT PUSH2 0x7D JUMPI PUSH1 0x0 CALLDATALOAD PUSH1 0xE0 SHR DUP1 PUSH4 0x73F95D6B GT PUSH2 0x5B JUMPI DUP1 PUSH4 0x73F95D6B EQ PUSH2 0xEE JUMPI DUP1 PUSH4 0x9D143E8E EQ PUSH2 0x10C JUMPI DUP1 PUSH4 0xB391C508 EQ PUSH2 0x12A JUMPI DUP1 PUSH4 0xE9ADC770 EQ PUSH2 0x146 JUMPI PUSH2 0x7D JUMP JUMPDEST DUP1 PUSH4 0x9C33C67 EQ PUSH2 0x82 JUMPI DUP1 PUSH4 0x150B7A02 EQ PUSH2 0xA0 JUMPI DUP1 PUSH4 0x2EB4A7AB EQ PUSH2 0xD0 JUMPI JUMPDEST PUSH1 0x0 DUP1 REVERT JUMPDEST PUSH2 0x8A PUSH2 0x164 JUMP JUMPDEST PUSH1 0x40 MLOAD PUSH2 0x97 SWAP2 SWAP1 PUSH2 0x5A3 JUMP JUMPDEST PUSH1 0x40 MLOAD DUP1 SWAP2 SUB SWAP1 RETURN JUMPDEST PUSH2 0xBA PUSH1 0x4 DUP1 CALLDATASIZE SUB DUP2 ADD SWAP1 PUSH2 0xB5 SWAP2 SWAP1 PUSH2 0x77A JUMP JUMPDEST PUSH2 0x188 JUMP JUMPDEST PUSH1 0x40 MLOAD PUSH2 0xC7 SWAP2 SWAP1 PUSH2 0x838 JUMP JUMPDEST PUSH1 0x40 MLOAD DUP1 SWAP2 SUB SWAP1 RETURN JUMPDEST PUSH2 0xD8 PUSH2 0x19C JUMP JUMPDEST PUSH1 0x40 MLOAD PUSH2 0xE5 SWAP2 SWAP1 PUSH2 0x86C JUMP JUMPDEST PUSH1 0x40 MLOAD DUP1 SWAP2 SUB SWAP1 RETURN JUMPDEST PUSH2 0xF6 PUSH2 0x1C0 JUMP JUMPDEST PUSH1 0x40 MLOAD PUSH2 0x103 SWAP2 SWAP1 PUSH2 0x896 JUMP JUMPDEST PUSH1 0x40 MLOAD DUP1 SWAP2 SUB SWAP1 RETURN JUMPDEST PUSH2 0x114 PUSH2 0x1C6 JUMP JUMPDEST PUSH1 0x40 MLOAD PUSH2 0x121 SWAP2 SWAP1 PUSH2 0x5A3 JUMP JUMPDEST PUSH1 0x40 MLOAD DUP1 SWAP2 SUB SWAP1 RETURN JUMPDEST PUSH2 0x144 PUSH1 0x4 DUP1 CALLDATASIZE SUB DUP2 ADD SWAP1 PUSH2 0x13F SWAP2 SWAP1 PUSH2 0x911 JUMP JUMPDEST PUSH2 0x1EA JUMP JUMPDEST STOP JUMPDEST PUSH2 0x14E PUSH2 0x48F JUMP JUMPDEST PUSH1 0x40 MLOAD PUSH2 0x15B SWAP2 SWAP1 PUSH2 0x5A3 JUMP JUMPDEST PUSH1 0x40 MLOAD DUP1 SWAP2 SUB SWAP1 RETURN JUMPDEST PUSH32 0x0 DUP2 JUMP JUMPDEST PUSH1 0x0 PUSH4 0x150B7A02 PUSH1 0xE0 SHL SWAP1 POP SWAP5 SWAP4 POP POP POP POP JUMP JUMPDEST PUSH32 0x0 DUP2 JUMP JUMPDEST PUSH1 0x0 SLOAD DUP2 JUMP JUMPDEST PUSH32 0x0 DUP2 JUMP JUMPDEST PUSH1 0x0 PUSH1 0x1 PUSH1 0x0 CALLER PUSH20 0xFFFFFFFFFFFFFFFFFFFFFFFFFFFFFFFFFFFFFFFF AND PUSH20 0xFFFFFFFFFFFFFFFFFFFFFFFFFFFFFFFFFFFFFFFF AND DUP2 MSTORE PUSH1 0x20 ADD SWAP1 DUP2 MSTORE PUSH1 0x20 ADD PUSH1 0x0 KECCAK256 SLOAD EQ PUSH2 0x26C JUMPI PUSH1 0x40 MLOAD PUSH32 0x8C379A000000000000000000000000000000000000000000000000000000000 DUP2 MSTORE PUSH1 0x4 ADD PUSH2 0x263 SWAP1 PUSH2 0x9BB JUMP JUMPDEST PUSH1 0x40 MLOAD DUP1 SWAP2 SUB SWAP1 REVERT JUMPDEST PUSH1 0x0 CALLER PUSH1 0x40 MLOAD PUSH1 0x20 ADD PUSH2 0x27F SWAP2 SWAP1 PUSH2 0xA23 JUMP JUMPDEST PUSH1 0x40 MLOAD PUSH1 0x20 DUP2 DUP4 SUB SUB DUP2 MSTORE SWAP1 PUSH1 0x40 MSTORE DUP1 MLOAD SWAP1 PUSH1 0x20 ADD KECCAK256 SWAP1 POP PUSH2 0x303 DUP4 DUP4 DUP1 DUP1 PUSH1 0x20 MUL PUSH1 0x20 ADD PUSH1 0x40 MLOAD SWAP1 DUP2 ADD PUSH1 0x40 MSTORE DUP1 SWAP4 SWAP3 SWAP2 SWAP1 DUP2 DUP2 MSTORE PUSH1 0x20 ADD DUP4 DUP4 PUSH1 0x20 MUL DUP1 DUP3 DUP5 CALLDATACOPY PUSH1 0x0 DUP2 DUP5 ADD MSTORE PUSH1 0x1F NOT PUSH1 0x1F DUP3 ADD AND SWAP1 POP DUP1 DUP4 ADD SWAP3 POP POP POP POP POP POP POP PUSH32 0x0 DUP4 PUSH2 0x4B3 JUMP JUMPDEST PUSH2 0x34C JUMPI PUSH1 0x1 DUP1 PUSH1 0x0 CALLER PUSH20 0xFFFFFFFFFFFFFFFFFFFFFFFFFFFFFFFFFFFFFFFF AND PUSH20 0xFFFFFFFFFFFFFFFFFFFFFFFFFFFFFFFFFFFFFFFF AND DUP2 MSTORE PUSH1 0x20 ADD SWAP1 DUP2 MSTORE PUSH1 0x20 ADD PUSH1 0x0 KECCAK256 DUP2 SWAP1 SSTORE POP JUMPDEST PUSH32 0x0 PUSH20 0xFFFFFFFFFFFFFFFFFFFFFFFFFFFFFFFFFFFFFFFF AND PUSH4 0xA9059CBB CALLER PUSH1 0x0 SLOAD PUSH1 0x40 MLOAD DUP4 PUSH4 0xFFFFFFFF AND PUSH1 0xE0 SHL DUP2 MSTORE PUSH1 0x4 ADD PUSH2 0x3A9 SWAP3 SWAP2 SWAP1 PUSH2 0xA3E JUMP JUMPDEST PUSH1 0x20 PUSH1 0x40 MLOAD DUP1 DUP4 SUB DUP2 PUSH1 0x0 DUP8 DUP1 EXTCODESIZE ISZERO DUP1 ISZERO PUSH2 0x3C3 JUMPI PUSH1 0x0 DUP1 REVERT JUMPDEST POP GAS CALL ISZERO DUP1 ISZERO PUSH2 0x3D7 JUMPI RETURNDATASIZE PUSH1 0x0 DUP1 RETURNDATACOPY RETURNDATASIZE PUSH1 0x0 REVERT JUMPDEST POP POP POP POP PUSH1 0x40 MLOAD RETURNDATASIZE PUSH1 0x1F NOT PUSH1 0x1F DUP3 ADD AND DUP3 ADD DUP1 PUSH1 0x40 MSTORE POP DUP2 ADD SWAP1 PUSH2 0x3FB SWAP2 SWAP1 PUSH2 0xA9F JUMP JUMPDEST PUSH2 0x43A JUMPI PUSH1 0x40 MLOAD PUSH32 0x8C379A000000000000000000000000000000000000000000000000000000000 DUP2 MSTORE PUSH1 0x4 ADD PUSH2 0x431 SWAP1 PUSH2 0xB18 JUMP JUMPDEST PUSH1 0x40 MLOAD DUP1 SWAP2 SUB SWAP1 REVERT JUMPDEST CALLER PUSH20 0xFFFFFFFFFFFFFFFFFFFFFFFFFFFFFFFFFFFFFFFF AND PUSH32 0xC738B2DE230010873D5B81370B4C10250E8EAEC27550F0C43FAF979E09309083 PUSH1 0x0 SLOAD PUSH1 0x40 MLOAD PUSH2 0x482 SWAP2 SWAP1 PUSH2 0x896 JUMP JUMPDEST PUSH1 0x40 MLOAD DUP1 SWAP2 SUB SWAP1 LOG2 POP POP POP JUMP JUMPDEST PUSH32 0x0 DUP2 JUMP JUMPDEST PUSH1 0x0 DUP3 PUSH2 0x4C0 DUP6 DUP5 PUSH2 0x4CA JUMP JUMPDEST EQ SWAP1 POP SWAP4 SWAP3 POP POP POP JUMP JUMPDEST PUSH1 0x0 DUP1 DUP3 SWAP1 POP PUSH1 0x0 JUMPDEST DUP5 MLOAD DUP2 LT ISZERO PUSH2 0x515 JUMPI PUSH2 0x500 DUP3 DUP7 DUP4 DUP2 MLOAD DUP2 LT PUSH2 0x4F3 JUMPI PUSH2 0x4F2 PUSH2 0xB38 JUMP JUMPDEST JUMPDEST PUSH1 0x20 MUL PUSH1 0x20 ADD ADD MLOAD PUSH2 0x520 JUMP JUMPDEST SWAP2 POP DUP1 DUP1 PUSH2 0x50D SWAP1 PUSH2 0xB96 JUMP JUMPDEST SWAP2 POP POP PUSH2 0x4D3 JUMP JUMPDEST POP DUP1 SWAP2 POP POP SWAP3 SWAP2 POP POP JUMP JUMPDEST PUSH1 0x0 DUP2 DUP4 LT PUSH2 0x538 JUMPI PUSH2 0x533 DUP3 DUP5 PUSH2 0x54B JUMP JUMPDEST PUSH2 0x543 JUMP JUMPDEST PUSH2 0x542 DUP4 DUP4 PUSH2 0x54B JUMP JUMPDEST JUMPDEST SWAP1 POP SWAP3 SWAP2 POP POP JUMP JUMPDEST PUSH1 0x0 DUP3 PUSH1 0x0 MSTORE DUP2 PUSH1 0x20 MSTORE PUSH1 0x40 PUSH1 0x0 KECCAK256 SWAP1 POP SWAP3 SWAP2 POP POP JUMP JUMPDEST PUSH1 0x0 PUSH20 0xFFFFFFFFFFFFFFFFFFFFFFFFFFFFFFFFFFFFFFFF DUP3 AND SWAP1 POP SWAP2 SWAP1 POP JUMP JUMPDEST PUSH1 0x0 PUSH2 0x58D DUP3 PUSH2 0x562 JUMP JUMPDEST SWAP1 POP SWAP2 SWAP1 POP JUMP JUMPDEST PUSH2 0x59D DUP2 PUSH2 0x582 JUMP JUMPDEST DUP3 MSTORE POP POP JUMP JUMPDEST PUSH1 0x0 PUSH1 0x20 DUP3 ADD SWAP1 POP PUSH2 0x5B8 PUSH1 0x0 DUP4 ADD DUP5 PUSH2 0x594 JUMP JUMPDEST SWAP3 SWAP2 POP POP JUMP JUMPDEST PUSH1 0x0 PUSH1 0x40 MLOAD SWAP1 POP SWAP1 JUMP JUMPDEST PUSH1 0x0 DUP1 REVERT JUMPDEST PUSH1 0x0 DUP1 REVERT JUMPDEST PUSH2 0x5DB DUP2 PUSH2 0x582 JUMP JUMPDEST DUP2 EQ PUSH2 0x5E6 JUMPI PUSH1 0x0 DUP1 REVERT JUMPDEST POP JUMP JUMPDEST PUSH1 0x0 DUP2 CALLDATALOAD SWAP1 POP PUSH2 0x5F8 DUP2 PUSH2 0x5D2 JUMP JUMPDEST SWAP3 SWAP2 POP POP JUMP JUMPDEST PUSH1 0x0 DUP2 SWAP1 POP SWAP2 SWAP1 POP JUMP JUMPDEST PUSH2 0x611 DUP2 PUSH2 0x5FE JUMP JUMPDEST DUP2 EQ PUSH2 0x61C JUMPI PUSH1 0x0 DUP1 REVERT JUMPDEST POP JUMP JUMPDEST PUSH1 0x0 DUP2 CALLDATALOAD SWAP1 POP PUSH2 0x62E DUP2 PUSH2 0x608 JUMP JUMPDEST SWAP3 SWAP2 POP POP JUMP JUMPDEST PUSH1 0x0 DUP1 REVERT JUMPDEST PUSH1 0x0 DUP1 REVERT JUMPDEST PUSH1 0x0 PUSH1 0x1F NOT PUSH1 0x1F DUP4 ADD AND SWAP1 POP SWAP2 SWAP1 POP JUMP JUMPDEST PUSH32 0x4E487B7100000000000000000000000000000000000000000000000000000000 PUSH1 0x0 MSTORE PUSH1 0x41 PUSH1 0x4 MSTORE PUSH1 0x24 PUSH1 0x0 REVERT JUMPDEST PUSH2 0x687 DUP3 PUSH2 0x63E JUMP JUMPDEST DUP2 ADD DUP2 DUP2 LT PUSH8 0xFFFFFFFFFFFFFFFF DUP3 GT OR ISZERO PUSH2 0x6A6 JUMPI PUSH2 0x6A5 PUSH2 0x64F JUMP JUMPDEST JUMPDEST DUP1 PUSH1 0x40 MSTORE POP POP POP JUMP JUMPDEST PUSH1 0x0 PUSH2 0x6B9 PUSH2 0x5BE JUMP JUMPDEST SWAP1 POP PUSH2 0x6C5 DUP3 DUP3 PUSH2 0x67E JUMP JUMPDEST SWAP2 SWAP1 POP JUMP JUMPDEST PUSH1 0x0 PUSH8 0xFFFFFFFFFFFFFFFF DUP3 GT ISZERO PUSH2 0x6E5 JUMPI PUSH2 0x6E4 PUSH2 0x64F JUMP JUMPDEST JUMPDEST PUSH2 0x6EE DUP3 PUSH2 0x63E JUMP JUMPDEST SWAP1 POP PUSH1 0x20 DUP2 ADD SWAP1 POP SWAP2 SWAP1 POP JUMP JUMPDEST DUP3 DUP2 DUP4 CALLDATACOPY PUSH1 0x0 DUP4 DUP4 ADD MSTORE POP POP POP JUMP JUMPDEST PUSH1 0x0 PUSH2 0x71D PUSH2 0x718 DUP5 PUSH2 0x6CA JUMP JUMPDEST PUSH2 0x6AF JUMP JUMPDEST SWAP1 POP DUP3 DUP2 MSTORE PUSH1 0x20 DUP2 ADD DUP5 DUP5 DUP5 ADD GT ISZERO PUSH2 0x739 JUMPI PUSH2 0x738 PUSH2 0x639 JUMP JUMPDEST JUMPDEST PUSH2 0x744 DUP5 DUP3 DUP6 PUSH2 0x6FB JUMP JUMPDEST POP SWAP4 SWAP3 POP POP POP JUMP JUMPDEST PUSH1 0x0 DUP3 PUSH1 0x1F DUP4 ADD SLT PUSH2 0x761 JUMPI PUSH2 0x760 PUSH2 0x634 JUMP JUMPDEST JUMPDEST DUP2 CALLDATALOAD PUSH2 0x771 DUP5 DUP3 PUSH1 0x20 DUP7 ADD PUSH2 0x70A JUMP JUMPDEST SWAP2 POP POP SWAP3 SWAP2 POP POP JUMP JUMPDEST PUSH1 0x0 DUP1 PUSH1 0x0 DUP1 PUSH1 0x80 DUP6 DUP8 SUB SLT ISZERO PUSH2 0x794 JUMPI PUSH2 0x793 PUSH2 0x5C8 JUMP JUMPDEST JUMPDEST PUSH1 0x0 PUSH2 0x7A2 DUP8 DUP3 DUP9 ADD PUSH2 0x5E9 JUMP JUMPDEST SWAP5 POP POP PUSH1 0x20 PUSH2 0x7B3 DUP8 DUP3 DUP9 ADD PUSH2 0x5E9 JUMP JUMPDEST SWAP4 POP POP PUSH1 0x40 PUSH2 0x7C4 DUP8 DUP3 DUP9 ADD PUSH2 0x61F JUMP JUMPDEST SWAP3 POP POP PUSH1 0x60 DUP6 ADD CALLDATALOAD PUSH8 0xFFFFFFFFFFFFFFFF DUP2 GT ISZERO PUSH2 0x7E5 JUMPI PUSH2 0x7E4 PUSH2 0x5CD JUMP JUMPDEST JUMPDEST PUSH2 0x7F1 DUP8 DUP3 DUP9 ADD PUSH2 0x74C JUMP JUMPDEST SWAP2 POP POP SWAP3 SWAP6 SWAP2 SWAP5 POP SWAP3 POP JUMP JUMPDEST PUSH1 0x0 PUSH32 0xFFFFFFFF00000000000000000000000000000000000000000000000000000000 DUP3 AND SWAP1 POP SWAP2 SWAP1 POP JUMP JUMPDEST PUSH2 0x832 DUP2 PUSH2 0x7FD JUMP JUMPDEST DUP3 MSTORE POP POP JUMP JUMPDEST PUSH1 0x0 PUSH1 0x20 DUP3 ADD SWAP1 POP PUSH2 0x84D PUSH1 0x0 DUP4 ADD DUP5 PUSH2 0x829 JUMP JUMPDEST SWAP3 SWAP2 POP POP JUMP JUMPDEST PUSH1 0x0 DUP2 SWAP1 POP SWAP2 SWAP1 POP JUMP JUMPDEST PUSH2 0x866 DUP2 PUSH2 0x853 JUMP JUMPDEST DUP3 MSTORE POP POP JUMP JUMPDEST PUSH1 0x0 PUSH1 0x20 DUP3 ADD SWAP1 POP PUSH2 0x881 PUSH1 0x0 DUP4 ADD DUP5 PUSH2 0x85D JUMP JUMPDEST SWAP3 SWAP2 POP POP JUMP JUMPDEST PUSH2 0x890 DUP2 PUSH2 0x5FE JUMP JUMPDEST DUP3 MSTORE POP POP JUMP JUMPDEST PUSH1 0x0 PUSH1 0x20 DUP3 ADD SWAP1 POP PUSH2 0x8AB PUSH1 0x0 DUP4 ADD DUP5 PUSH2 0x887 JUMP JUMPDEST SWAP3 SWAP2 POP POP JUMP JUMPDEST PUSH1 0x0 DUP1 REVERT JUMPDEST PUSH1 0x0 DUP1 REVERT JUMPDEST PUSH1 0x0 DUP1 DUP4 PUSH1 0x1F DUP5 ADD SLT PUSH2 0x8D1 JUMPI PUSH2 0x8D0 PUSH2 0x634 JUMP JUMPDEST JUMPDEST DUP3 CALLDATALOAD SWAP1 POP PUSH8 0xFFFFFFFFFFFFFFFF DUP2 GT ISZERO PUSH2 0x8EE JUMPI PUSH2 0x8ED PUSH2 0x8B1 JUMP JUMPDEST JUMPDEST PUSH1 0x20 DUP4 ADD SWAP2 POP DUP4 PUSH1 0x20 DUP3 MUL DUP4 ADD GT ISZERO PUSH2 0x90A JUMPI PUSH2 0x909 PUSH2 0x8B6 JUMP JUMPDEST JUMPDEST SWAP3 POP SWAP3 SWAP1 POP JUMP JUMPDEST PUSH1 0x0 DUP1 PUSH1 0x20 DUP4 DUP6 SUB SLT ISZERO PUSH2 0x928 JUMPI PUSH2 0x927 PUSH2 0x5C8 JUMP JUMPDEST JUMPDEST PUSH1 0x0 DUP4 ADD CALLDATALOAD PUSH8 0xFFFFFFFFFFFFFFFF DUP2 GT ISZERO PUSH2 0x946 JUMPI PUSH2 0x945 PUSH2 0x5CD JUMP JUMPDEST JUMPDEST PUSH2 0x952 DUP6 DUP3 DUP7 ADD PUSH2 0x8BB JUMP JUMPDEST SWAP3 POP SWAP3 POP POP SWAP3 POP SWAP3 SWAP1 POP JUMP JUMPDEST PUSH1 0x0 DUP3 DUP3 MSTORE PUSH1 0x20 DUP3 ADD SWAP1 POP SWAP3 SWAP2 POP POP JUMP JUMPDEST PUSH32 0x436C61696D656420455243323000000000000000000000000000000000000000 PUSH1 0x0 DUP3 ADD MSTORE POP JUMP JUMPDEST PUSH1 0x0 PUSH2 0x9A5 PUSH1 0xD DUP4 PUSH2 0x95E JUMP JUMPDEST SWAP2 POP PUSH2 0x9B0 DUP3 PUSH2 0x96F JUMP JUMPDEST PUSH1 0x20 DUP3 ADD SWAP1 POP SWAP2 SWAP1 POP JUMP JUMPDEST PUSH1 0x0 PUSH1 0x20 DUP3 ADD SWAP1 POP DUP2 DUP2 SUB PUSH1 0x0 DUP4 ADD MSTORE PUSH2 0x9D4 DUP2 PUSH2 0x998 JUMP JUMPDEST SWAP1 POP SWAP2 SWAP1 POP JUMP JUMPDEST PUSH1 0x0 DUP2 PUSH1 0x60 SHL SWAP1 POP SWAP2 SWAP1 POP JUMP JUMPDEST PUSH1 0x0 PUSH2 0x9F3 DUP3 PUSH2 0x9DB JUMP JUMPDEST SWAP1 POP SWAP2 SWAP1 POP JUMP JUMPDEST PUSH1 0x0 PUSH2 0xA05 DUP3 PUSH2 0x9E8 JUMP JUMPDEST SWAP1 POP SWAP2 SWAP1 POP JUMP JUMPDEST PUSH2 0xA1D PUSH2 0xA18 DUP3 PUSH2 0x582 JUMP JUMPDEST PUSH2 0x9FA JUMP JUMPDEST DUP3 MSTORE POP POP JUMP JUMPDEST PUSH1 0x0 PUSH2 0xA2F DUP3 DUP5 PUSH2 0xA0C JUMP JUMPDEST PUSH1 0x14 DUP3 ADD SWAP2 POP DUP2 SWAP1 POP SWAP3 SWAP2 POP POP JUMP JUMPDEST PUSH1 0x0 PUSH1 0x40 DUP3 ADD SWAP1 POP PUSH2 0xA53 PUSH1 0x0 DUP4 ADD DUP6 PUSH2 0x594 JUMP JUMPDEST PUSH2 0xA60 PUSH1 0x20 DUP4 ADD DUP5 PUSH2 0x887 JUMP JUMPDEST SWAP4 SWAP3 POP POP POP JUMP JUMPDEST PUSH1 0x0 DUP2 ISZERO ISZERO SWAP1 POP SWAP2 SWAP1 POP JUMP JUMPDEST PUSH2 0xA7C DUP2 PUSH2 0xA67 JUMP JUMPDEST DUP2 EQ PUSH2 0xA87 JUMPI PUSH1 0x0 DUP1 REVERT JUMPDEST POP JUMP JUMPDEST PUSH1 0x0 DUP2 MLOAD SWAP1 POP PUSH2 0xA99 DUP2 PUSH2 0xA73 JUMP JUMPDEST SWAP3 SWAP2 POP POP JUMP JUMPDEST PUSH1 0x0 PUSH1 0x20 DUP3 DUP5 SUB SLT ISZERO PUSH2 0xAB5 JUMPI PUSH2 0xAB4 PUSH2 0x5C8 JUMP JUMPDEST JUMPDEST PUSH1 0x0 PUSH2 0xAC3 DUP5 DUP3 DUP6 ADD PUSH2 0xA8A JUMP JUMPDEST SWAP2 POP POP SWAP3 SWAP2 POP POP JUMP JUMPDEST PUSH32 0x5472616E73666572206661696C65640000000000000000000000000000000000 PUSH1 0x0 DUP3 ADD MSTORE POP JUMP JUMPDEST PUSH1 0x0 PUSH2 0xB02 PUSH1 0xF DUP4 PUSH2 0x95E JUMP JUMPDEST SWAP2 POP PUSH2 0xB0D DUP3 PUSH2 0xACC JUMP JUMPDEST PUSH1 0x20 DUP3 ADD SWAP1 POP SWAP2 SWAP1 POP JUMP JUMPDEST PUSH1 0x0 PUSH1 0x20 DUP3 ADD SWAP1 POP DUP2 DUP2 SUB PUSH1 0x0 DUP4 ADD MSTORE PUSH2 0xB31 DUP2 PUSH2 0xAF5 JUMP JUMPDEST SWAP1 POP SWAP2 SWAP1 POP JUMP JUMPDEST PUSH32 0x4E487B7100000000000000000000000000000000000000000000000000000000 PUSH1 0x0 MSTORE PUSH1 0x32 PUSH1 0x4 MSTORE PUSH1 0x24 PUSH1 0x0 REVERT JUMPDEST PUSH32 0x4E487B7100000000000000000000000000000000000000000000000000000000 PUSH1 0x0 MSTORE PUSH1 0x11 PUSH1 0x4 MSTORE PUSH1 0x24 PUSH1 0x0 REVERT JUMPDEST PUSH1 0x0 PUSH2 0xBA1 DUP3 PUSH2 0x5FE JUMP JUMPDEST SWAP2 POP PUSH32 0xFFFFFFFFFFFFFFFFFFFFFFFFFFFFFFFFFFFFFFFFFFFFFFFFFFFFFFFFFFFFFFFF DUP3 EQ ISZERO PUSH2 0xBD4 JUMPI PUSH2 0xBD3 PUSH2 0xB67 JUMP JUMPDEST JUMPDEST PUSH1 0x1 DUP3 ADD SWAP1 POP SWAP2 SWAP1 POP JUMP INVALID LOG2 PUSH5 0x6970667358 0x22 SLT KECCAK256 PUSH17 0xCA3CE5ABDD59D39F6ECECDC0E1AB379472 LOG2 0xAC SWAP13 0xB3 SMOD CHAINID DUP16 PUSH1 0xCB 0xAA 0x25 0xB0 0xBA 0xFC PUSH5 0x736F6C6343 STOP ADDMOD MULMOD STOP CALLER "},"methodIdentifiers":{"claim(bytes32[])":"b391c508","dropERC20()":"73f95d6b","merkleRoot()":"2eb4a7ab","onERC721Received(address,address,uint256,bytes)":"150b7a02","tokenERC1155()":"09c33c67","tokenERC20()":"9d143e8e","tokenERC721()":"e9adc770"}}}}}