{
  "_format": "hh-sol-artifact-1",
  "contractName": "MerkleDistributor721",
  "sourceName": "contracts/MerkleDistributor721.sol",
  "abi": [
    {
      "inputs": [
        {
          "internalType": "address",
          "name": "token721_",
          "type": "address"
        },
        {
          "internalType": "bytes32",
          "name": "merkleRoot_",
          "type": "bytes32"
        },
        {
          "internalType": "address",
          "name": "vrfConsumerAddress",
          "type": "address"
        },
        {
          "internalType": "uint256",
          "name": "noOfPlayers",
          "type": "uint256"
        }
      ],
      "stateMutability": "nonpayable",
      "type": "constructor"
    },
    {
      "anonymous": false,
      "inputs": [
        {
          "indexed": true,
          "internalType": "address",
          "name": "_from",
          "type": "address"
        }
      ],
      "name": "ClaimedERC721",
      "type": "event"
    },
    {
      "anonymous": false,
      "inputs": [
        {
          "indexed": false,
          "internalType": "uint256",
          "name": "request",
          "type": "uint256"
        }
      ],
      "name": "RequestID",
      "type": "event"
    },
    {
      "inputs": [
        {
          "internalType": "address",
          "name": "from",
          "type": "address"
        },
        {
          "internalType": "address",
          "name": "to",
          "type": "address"
        },
        {
          "internalType": "uint256",
          "name": "tokenId",
          "type": "uint256"
        },
        {
          "internalType": "bytes32[]",
          "name": "merkleProof",
          "type": "bytes32[]"
        }
      ],
      "name": "claim721",
      "outputs": [],
      "stateMutability": "nonpayable",
      "type": "function"
    },
    {
      "inputs": [],
      "name": "getRandomWinnerIndex",
      "outputs": [
        {
          "internalType": "uint256",
          "name": "",
          "type": "uint256"
        }
      ],
      "stateMutability": "view",
      "type": "function"
    },
    {
      "inputs": [],
      "name": "lotteryId",
      "outputs": [
        {
          "internalType": "uint256",
          "name": "",
          "type": "uint256"
        }
      ],
      "stateMutability": "view",
      "type": "function"
    },
    {
      "inputs": [],
      "name": "merkleRoot",
      "outputs": [
        {
          "internalType": "bytes32",
          "name": "",
          "type": "bytes32"
        }
      ],
      "stateMutability": "view",
      "type": "function"
    },
    {
      "inputs": [
        {
          "internalType": "address",
          "name": "",
          "type": "address"
        },
        {
          "internalType": "address",
          "name": "",
          "type": "address"
        },
        {
          "internalType": "uint256",
          "name": "",
          "type": "uint256"
        },
        {
          "internalType": "bytes",
          "name": "",
          "type": "bytes"
        }
      ],
      "name": "onERC721Received",
      "outputs": [
        {
          "internalType": "bytes4",
          "name": "",
          "type": "bytes4"
        }
      ],
      "stateMutability": "nonpayable",
      "type": "function"
    },
    {
      "inputs": [],
      "name": "playersCount",
      "outputs": [
        {
          "internalType": "uint256",
          "name": "",
          "type": "uint256"
        }
      ],
      "stateMutability": "view",
      "type": "function"
    },
    {
      "inputs": [],
      "name": "requestRandomWords",
      "outputs": [],
      "stateMutability": "nonpayable",
      "type": "function"
    },
    {
      "inputs": [],
      "name": "tokenERC721",
      "outputs": [
        {
          "internalType": "address",
          "name": "",
          "type": "address"
        }
      ],
      "stateMutability": "view",
      "type": "function"
    }
  ],
  "bytecode": "0x60c06040523480156200001157600080fd5b50604051620010e9380380620010e98339818101604052810190620000379190620001a4565b8373ffffffffffffffffffffffffffffffffffffffff1660808173ffffffffffffffffffffffffffffffffffffffff16815250508260a08181525050816000806101000a81548173ffffffffffffffffffffffffffffffffffffffff021916908373ffffffffffffffffffffffffffffffffffffffff160217905550806002819055505050505062000216565b600080fd5b600073ffffffffffffffffffffffffffffffffffffffff82169050919050565b6000620000f682620000c9565b9050919050565b6200010881620000e9565b81146200011457600080fd5b50565b6000815190506200012881620000fd565b92915050565b6000819050919050565b62000143816200012e565b81146200014f57600080fd5b50565b600081519050620001638162000138565b92915050565b6000819050919050565b6200017e8162000169565b81146200018a57600080fd5b50565b6000815190506200019e8162000173565b92915050565b60008060008060808587031215620001c157620001c0620000c4565b5b6000620001d18782880162000117565b9450506020620001e48782880162000152565b9350506040620001f78782880162000117565b92505060606200020a878288016200018d565b91505092959194509250565b60805160a051610e9f6200024a600039600081816102c4015261040601526000818161047701526105140152610e9f6000f3fe608060405234801561001057600080fd5b50600436106100875760003560e01c8063e0c862891161005b578063e0c8628914610116578063e333ee0214610120578063e580f47b1461013c578063e9adc7701461015a57610087565b80628d6ef51461008c578063150b7a02146100aa5780632eb4a7ab146100da578063a3f67d6d146100f8575b600080fd5b610094610178565b6040516100a191906105fe565b60405180910390f35b6100c460048036038101906100bf91906107fd565b6102ae565b6040516100d191906108bb565b60405180910390f35b6100e26102c2565b6040516100ef91906108ef565b60405180910390f35b6101006102e6565b60405161010d91906105fe565b60405180910390f35b61011e6102ec565b005b61013a6004803603810190610135919061096a565b610394565b005b61014461050c565b60405161015191906105fe565b60405180910390f35b610162610512565b60405161016f9190610a01565b60405180910390f35b60008060008060009054906101000a900473ffffffffffffffffffffffffffffffffffffffff1673ffffffffffffffffffffffffffffffffffffffff1663d8a4676f6001546040518263ffffffff1660e01b81526004016101d991906105fe565b60006040518083038186803b1580156101f157600080fd5b505afa158015610205573d6000803e3d6000fd5b505050506040513d6000823e3d601f19601f8201168201806040525081019061022e9190610b2c565b9150915081610272576040517f08c379a000000000000000000000000000000000000000000000000000000000815260040161026990610c0b565b60405180910390fd5b60008160008151811061028857610287610c2b565b5b602002602001015190506000600254826102a29190610c89565b90508094505050505090565b600063150b7a0260e01b9050949350505050565b7f000000000000000000000000000000000000000000000000000000000000000081565b60025481565b60008054906101000a900473ffffffffffffffffffffffffffffffffffffffff1673ffffffffffffffffffffffffffffffffffffffff1663e0c862896040518163ffffffff1660e01b8152600401602060405180830381600087803b15801561035457600080fd5b505af1158015610368573d6000803e3d6000fd5b505050506040513d601f19601f8201168201806040525081019061038c9190610cba565b600181905550565b6000336040516020016103a79190610d2f565b60405160208183030381529060405280519060200120905061042b838380806020026020016040519081016040528093929190818152602001838360200280828437600081840152601f19601f820116905080830192505050505050507f000000000000000000000000000000000000000000000000000000000000000083610536565b610475576001600360003373ffffffffffffffffffffffffffffffffffffffff1673ffffffffffffffffffffffffffffffffffffffff168152602001908152602001600020819055505b7f000000000000000000000000000000000000000000000000000000000000000073ffffffffffffffffffffffffffffffffffffffff1663b88d4fde8787876040518463ffffffff1660e01b81526004016104d293929190610da7565b600060405180830381600087803b1580156104ec57600080fd5b505af1158015610500573d6000803e3d6000fd5b50505050505050505050565b60015481565b7f000000000000000000000000000000000000000000000000000000000000000081565b600082610543858461054d565b1490509392505050565b60008082905060005b8451811015610598576105838286838151811061057657610575610c2b565b5b60200260200101516105a3565b9150808061059090610e20565b915050610556565b508091505092915050565b60008183106105bb576105b682846105ce565b6105c6565b6105c583836105ce565b5b905092915050565b600082600052816020526040600020905092915050565b6000819050919050565b6105f8816105e5565b82525050565b600060208201905061061360008301846105ef565b92915050565b6000604051905090565b600080fd5b600080fd5b600073ffffffffffffffffffffffffffffffffffffffff82169050919050565b60006106588261062d565b9050919050565b6106688161064d565b811461067357600080fd5b50565b6000813590506106858161065f565b92915050565b610694816105e5565b811461069f57600080fd5b50565b6000813590506106b18161068b565b92915050565b600080fd5b600080fd5b6000601f19601f8301169050919050565b7f4e487b7100000000000000000000000000000000000000000000000000000000600052604160045260246000fd5b61070a826106c1565b810181811067ffffffffffffffff82111715610729576107286106d2565b5b80604052505050565b600061073c610619565b90506107488282610701565b919050565b600067ffffffffffffffff821115610768576107676106d2565b5b610771826106c1565b9050602081019050919050565b82818337600083830152505050565b60006107a061079b8461074d565b610732565b9050828152602081018484840111156107bc576107bb6106bc565b5b6107c784828561077e565b509392505050565b600082601f8301126107e4576107e36106b7565b5b81356107f484826020860161078d565b91505092915050565b6000806000806080858703121561081757610816610623565b5b600061082587828801610676565b945050602061083687828801610676565b9350506040610847878288016106a2565b925050606085013567ffffffffffffffff81111561086857610867610628565b5b610874878288016107cf565b91505092959194509250565b60007fffffffff0000000000000000000000000000000000000000000000000000000082169050919050565b6108b581610880565b82525050565b60006020820190506108d060008301846108ac565b92915050565b6000819050919050565b6108e9816108d6565b82525050565b600060208201905061090460008301846108e0565b92915050565b600080fd5b600080fd5b60008083601f84011261092a576109296106b7565b5b8235905067ffffffffffffffff8111156109475761094661090a565b5b6020830191508360208202830111156109635761096261090f565b5b9250929050565b60008060008060006080868803121561098657610985610623565b5b600061099488828901610676565b95505060206109a588828901610676565b94505060406109b6888289016106a2565b935050606086013567ffffffffffffffff8111156109d7576109d6610628565b5b6109e388828901610914565b92509250509295509295909350565b6109fb8161064d565b82525050565b6000602082019050610a1660008301846109f2565b92915050565b60008115159050919050565b610a3181610a1c565b8114610a3c57600080fd5b50565b600081519050610a4e81610a28565b92915050565b600067ffffffffffffffff821115610a6f57610a6e6106d2565b5b602082029050602081019050919050565b600081519050610a8f8161068b565b92915050565b6000610aa8610aa384610a54565b610732565b90508083825260208201905060208402830185811115610acb57610aca61090f565b5b835b81811015610af45780610ae08882610a80565b845260208401935050602081019050610acd565b5050509392505050565b600082601f830112610b1357610b126106b7565b5b8151610b23848260208601610a95565b91505092915050565b60008060408385031215610b4357610b42610623565b5b6000610b5185828601610a3f565b925050602083015167ffffffffffffffff811115610b7257610b71610628565b5b610b7e85828601610afe565b9150509250929050565b600082825260208201905092915050565b7f4c6f74746572792050726f63657373206973204f6e2e2e205761697420666f7260008201527f2061207768696c65000000000000000000000000000000000000000000000000602082015250565b6000610bf5602883610b88565b9150610c0082610b99565b604082019050919050565b60006020820190508181036000830152610c2481610be8565b9050919050565b7f4e487b7100000000000000000000000000000000000000000000000000000000600052603260045260246000fd5b7f4e487b7100000000000000000000000000000000000000000000000000000000600052601260045260246000fd5b6000610c94826105e5565b9150610c9f836105e5565b925082610caf57610cae610c5a565b5b828206905092915050565b600060208284031215610cd057610ccf610623565b5b6000610cde84828501610a80565b91505092915050565b60008160601b9050919050565b6000610cff82610ce7565b9050919050565b6000610d1182610cf4565b9050919050565b610d29610d248261064d565b610d06565b82525050565b6000610d3b8284610d18565b60148201915081905092915050565b600082825260208201905092915050565b7f3078000000000000000000000000000000000000000000000000000000000000600082015250565b6000610d91600283610d4a565b9150610d9c82610d5b565b602082019050919050565b6000608082019050610dbc60008301866109f2565b610dc960208301856109f2565b610dd660408301846105ef565b8181036060830152610de781610d84565b9050949350505050565b7f4e487b7100000000000000000000000000000000000000000000000000000000600052601160045260246000fd5b6000610e2b826105e5565b91507fffffffffffffffffffffffffffffffffffffffffffffffffffffffffffffffff821415610e5e57610e5d610df1565b5b60018201905091905056fea26469706673582212207b1af3ffe5db536a0628af3bdc823e8c871072c06ae47ad9b2e1afe82d8fc16764736f6c63430008090033",
  "linkReferences": {},
  "deployedLinkReferences": {}
}