{
    "contractName": "MerkleDistributor",
    "abi": [
        {
            "inputs": [
                {
                    "internalType": "address",
                    "name": "token_",
                    "type": "address"
                },
                {
                    "internalType": "address",
                    "name": "token721_",
                    "type": "address"
                },
                {
                    "internalType": "address",
                    "name": "token1155_",
                    "type": "address"
                },
                {
                    "internalType": "bytes32",
                    "name": "merkleRoot_",
                    "type": "bytes32"
                },
                {
                    "internalType": "uint256",
                    "name": "dropERC20_",
                    "type": "uint256"
                }
            ],
            "stateMutability": "nonpayable",
            "type": "constructor"
        },
        {
            "anonymous": false,
            "inputs": [
                {
                    "indexed": true,
                    "internalType": "address",
                    "name": "_from",
                    "type": "address"
                },
                {
                    "indexed": false,
                    "internalType": "uint256",
                    "name": "_dropERC20",
                    "type": "uint256"
                }
            ],
            "name": "ClaimedERC20",
            "type": "event"
        },
        {
            "anonymous": false,
            "inputs": [
                {
                    "indexed": false,
                    "internalType": "uint256",
                    "name": "request",
                    "type": "uint256"
                }
            ],
            "name": "RequestID",
            "type": "event"
        },
        {
            "inputs": [
                {
                    "internalType": "bytes32[]",
                    "name": "merkleProof",
                    "type": "bytes32[]"
                }
            ],
            "name": "claim",
            "outputs": [],
            "stateMutability": "nonpayable",
            "type": "function"
        },
        {
            "inputs": [
                {
                    "internalType": "address",
                    "name": "from",
                    "type": "address"
                },
                {
                    "internalType": "address",
                    "name": "to",
                    "type": "address"
                },
                {
                    "internalType": "uint256",
                    "name": "tokenId",
                    "type": "uint256"
                },
                {
                    "internalType": "bytes32[]",
                    "name": "merkleProof",
                    "type": "bytes32[]"
                }
            ],
            "name": "claim721",
            "outputs": [],
            "stateMutability": "nonpayable",
            "type": "function"
        },
        {
            "inputs": [],
            "name": "drawWinner",
            "outputs": [],
            "stateMutability": "nonpayable",
            "type": "function"
        },
        {
            "inputs": [],
            "name": "dropERC20",
            "outputs": [
                {
                    "internalType": "uint256",
                    "name": "",
                    "type": "uint256"
                }
            ],
            "stateMutability": "view",
            "type": "function"
        },
        {
            "inputs": [],
            "name": "merkleRoot",
            "outputs": [
                {
                    "internalType": "bytes32",
                    "name": "",
                    "type": "bytes32"
                }
            ],
            "stateMutability": "view",
            "type": "function"
        },
        {
            "inputs": [
                {
                    "internalType": "address",
                    "name": "",
                    "type": "address"
                },
                {
                    "internalType": "address",
                    "name": "",
                    "type": "address"
                },
                {
                    "internalType": "uint256[]",
                    "name": "",
                    "type": "uint256[]"
                },
                {
                    "internalType": "uint256[]",
                    "name": "",
                    "type": "uint256[]"
                },
                {
                    "internalType": "bytes",
                    "name": "",
                    "type": "bytes"
                }
            ],
            "name": "onERC1155BatchReceived",
            "outputs": [
                {
                    "internalType": "bytes4",
                    "name": "",
                    "type": "bytes4"
                }
            ],
            "stateMutability": "nonpayable",
            "type": "function"
        },
        {
            "inputs": [
                {
                    "internalType": "address",
                    "name": "",
                    "type": "address"
                },
                {
                    "internalType": "address",
                    "name": "",
                    "type": "address"
                },
                {
                    "internalType": "uint256",
                    "name": "",
                    "type": "uint256"
                },
                {
                    "internalType": "uint256",
                    "name": "",
                    "type": "uint256"
                },
                {
                    "internalType": "bytes",
                    "name": "",
                    "type": "bytes"
                }
            ],
            "name": "onERC1155Received",
            "outputs": [
                {
                    "internalType": "bytes4",
                    "name": "",
                    "type": "bytes4"
                }
            ],
            "stateMutability": "nonpayable",
            "type": "function"
        },
        {
            "inputs": [
                {
                    "internalType": "address",
                    "name": "",
                    "type": "address"
                },
                {
                    "internalType": "address",
                    "name": "",
                    "type": "address"
                },
                {
                    "internalType": "uint256",
                    "name": "",
                    "type": "uint256"
                },
                {
                    "internalType": "bytes",
                    "name": "",
                    "type": "bytes"
                }
            ],
            "name": "onERC721Received",
            "outputs": [
                {
                    "internalType": "bytes4",
                    "name": "",
                    "type": "bytes4"
                }
            ],
            "stateMutability": "nonpayable",
            "type": "function"
        },
        {
            "inputs": [
                {
                    "internalType": "bytes4",
                    "name": "interfaceId",
                    "type": "bytes4"
                }
            ],
            "name": "supportsInterface",
            "outputs": [
                {
                    "internalType": "bool",
                    "name": "",
                    "type": "bool"
                }
            ],
            "stateMutability": "view",
            "type": "function"
        },
        {
            "inputs": [],
            "name": "tokenERC1155",
            "outputs": [
                {
                    "internalType": "address",
                    "name": "",
                    "type": "address"
                }
            ],
            "stateMutability": "view",
            "type": "function"
        },
        {
            "inputs": [],
            "name": "tokenERC20",
            "outputs": [
                {
                    "internalType": "address",
                    "name": "",
                    "type": "address"
                }
            ],
            "stateMutability": "view",
            "type": "function"
        },
        {
            "inputs": [],
            "name": "tokenERC721",
            "outputs": [
                {
                    "internalType": "address",
                    "name": "",
                    "type": "address"
                }
            ],
            "stateMutability": "view",
            "type": "function"
        }
    ],
    "bytecode": "61010060405234801561001157600080fd5b506040516119c23803806119c283398101604081905261003091610073565b6001600160a01b0394851660805292841660a052921660c05260e0919091526000556100c9565b80516001600160a01b038116811461006e57600080fd5b919050565b600080600080600060a0868803121561008b57600080fd5b61009486610057565b94506100a260208701610057565b93506100b060408701610057565b6060870151608090970151959894975095949392505050565b60805160a05160c05160e0516118a561011d6000396000818161017601528181610466015261062f0152600060fa01526000818161023b01526106a70152600081816101b701526104cb01526118a56000f3fe60806040523480156200001157600080fd5b5060043610620000c35760003560e01c8063b2185bb1116200007a578063b2185bb114620001d9578063b391c50814620001e5578063bc197c8114620001fc578063e333ee02146200021e578063e9adc7701462000235578063f23a6e61146200025d57600080fd5b806301ffc9a714620000c857806309c33c6714620000f4578063150b7a0214620001355780632eb4a7ab146200017057806373f95d6b14620001a75780639d143e8e14620001b1575b600080fd5b620000df620000d9366004620007be565b6200027f565b60405190151581526020015b60405180910390f35b6200011c7f000000000000000000000000000000000000000000000000000000000000000081565b6040516001600160a01b039091168152602001620000eb565b6200015662000146366004620008c8565b630a85bd0160e11b949350505050565b6040516001600160e01b03199091168152602001620000eb565b620001987f000000000000000000000000000000000000000000000000000000000000000081565b604051908152602001620000eb565b6200019860005481565b6200011c7f000000000000000000000000000000000000000000000000000000000000000081565b620001e3620002b7565b005b620001e3620001f636600462000987565b620003a4565b620001566200020d36600462000a56565b63bc197c8160e01b95945050505050565b620001e36200022f36600462000b0e565b620005c0565b6200011c7f000000000000000000000000000000000000000000000000000000000000000081565b620001566200026e36600462000b85565b63f23a6e6160e01b95945050505050565b60006001600160e01b03198216630271189760e51b1480620002b157506301ffc9a760e01b6001600160e01b03198316145b92915050565b60006101c1604051620002ca90620007b0565b67ffffffffffffffff9091168152602001604051809103906000f080158015620002f8573d6000803e3d6000fd5b5090506000816001600160a01b031663e0c862896040518163ffffffff1660e01b81526004016020604051808303816000875af11580156200033e573d6000803e3d6000fd5b505050506040513d601f19601f8201168201806040525081019062000364919062000bf2565b90507f8122a65d33d8c7ad842fe4edeb9e83a70a705460949bed1a3d6848e8e280f6d2816040516200039891815260200190565b60405180910390a15050565b3360009081526001602052604090205415620003f75760405162461bcd60e51b815260206004820152600d60248201526c0436c61696d656420455243323609c1b60448201526064015b60405180910390fd5b6040516bffffffffffffffffffffffff193360601b166020820152600090603401604051602081830303815290604052805190602001209050620004928383808060200260200160405190810160405280939291908181526020018383602002808284376000920191909152507f000000000000000000000000000000000000000000000000000000000000000092508591506200070e9050565b620004ab57336000908152600160208190526040909120555b60005460405163a9059cbb60e01b815233600482015260248101919091527f00000000000000000000000000000000000000000000000000000000000000006001600160a01b03169063a9059cbb906044016020604051808303816000875af11580156200051d573d6000803e3d6000fd5b505050506040513d601f19601f8201168201806040525081019062000543919062000c0c565b620005835760405162461bcd60e51b815260206004820152600f60248201526e151c985b9cd9995c8819985a5b1959608a1b6044820152606401620003ee565b60005460405190815233907fc738b2de230010873d5b81370b4c10250e8eaec27550f0c43faf979e093090839060200160405180910390a2505050565b6040516bffffffffffffffffffffffff193360601b1660208201526000906034016040516020818303038152906040528051906020012090506200065b8383808060200260200160405190810160405280939291908181526020018383602002808284376000920191909152507f000000000000000000000000000000000000000000000000000000000000000092508591506200070e9050565b6200070657604051635c46a7ef60e11b81526001600160a01b038781166004830152868116602483015260448201869052608060648301526002608483015261060f60f31b60a48301527f0000000000000000000000000000000000000000000000000000000000000000169063b88d4fde9060c401600060405180830381600087803b158015620006ec57600080fd5b505af115801562000701573d6000803e3d6000fd5b505050505b505050505050565b6000826200071d858462000726565b14949350505050565b600081815b845181101562000774576200075d828683815181106200074f576200074f62000c30565b60200260200101516200077c565b9150806200076b8162000c46565b9150506200072b565b509392505050565b60008183106200079a576000828152602084905260409020620007a9565b60008381526020839052604090205b9392505050565b610c018062000c6f83390190565b600060208284031215620007d157600080fd5b81356001600160e01b031981168114620007a957600080fd5b80356001600160a01b03811681146200080257600080fd5b919050565b634e487b7160e01b600052604160045260246000fd5b604051601f8201601f1916810167ffffffffffffffff8111828210171562000849576200084962000807565b604052919050565b600082601f8301126200086357600080fd5b813567ffffffffffffffff81111562000880576200088062000807565b62000895601f8201601f19166020016200081d565b818152846020838601011115620008ab57600080fd5b816020850160208301376000918101602001919091529392505050565b60008060008060808587031215620008df57600080fd5b620008ea85620007ea565b9350620008fa60208601620007ea565b925060408501359150606085013567ffffffffffffffff8111156200091e57600080fd5b6200092c8782880162000851565b91505092959194509250565b60008083601f8401126200094b57600080fd5b50813567ffffffffffffffff8111156200096457600080fd5b6020830191508360208260051b85010111156200098057600080fd5b9250929050565b600080602083850312156200099b57600080fd5b823567ffffffffffffffff811115620009b357600080fd5b620009c18582860162000938565b90969095509350505050565b600082601f830112620009df57600080fd5b8135602067ffffffffffffffff821115620009fe57620009fe62000807565b8160051b62000a0f8282016200081d565b928352848101820192828101908785111562000a2a57600080fd5b83870192505b8483101562000a4b5782358252918301919083019062000a30565b979650505050505050565b600080600080600060a0868803121562000a6f57600080fd5b62000a7a86620007ea565b945062000a8a60208701620007ea565b9350604086013567ffffffffffffffff8082111562000aa857600080fd5b62000ab689838a01620009cd565b9450606088013591508082111562000acd57600080fd5b62000adb89838a01620009cd565b9350608088013591508082111562000af257600080fd5b5062000b018882890162000851565b9150509295509295909350565b60008060008060006080868803121562000b2757600080fd5b62000b3286620007ea565b945062000b4260208701620007ea565b935060408601359250606086013567ffffffffffffffff81111562000b6657600080fd5b62000b748882890162000938565b969995985093965092949392505050565b600080600080600060a0868803121562000b9e57600080fd5b62000ba986620007ea565b945062000bb960208701620007ea565b93506040860135925060608601359150608086013567ffffffffffffffff81111562000be457600080fd5b62000b018882890162000851565b60006020828403121562000c0557600080fd5b5051919050565b60006020828403121562000c1f57600080fd5b81518015158114620007a957600080fd5b634e487b7160e01b600052603260045260246000fd5b60006001820162000c6757634e487b7160e01b600052601160045260246000fd5b506001019056fe60a06040527f474e34a077df58807dbe9c96d3c009b23b3c6d0cce433e59bbf5b34f823bc56c600655600780546001600160501b03191666020003000186a017905534801561004d57600080fd5b50604051610c01380380610c0183398101604081905261006c916101f9565b738103b0a8a00be2ddc778e6e7eaa21791cd36462560805233806000816100da5760405162461bcd60e51b815260206004820152601860248201527f43616e6e6f7420736574206f776e657220746f207a65726f000000000000000060448201526064015b60405180910390fd5b600080546001600160a01b0319166001600160a01b038481169190911790915581161561010a5761010a81610150565b5050600380546001600160401b03909316600160a01b026001600160e01b031990931692909217738103b0a8a00be2ddc778e6e7eaa21791cd3646251790915550610229565b336001600160a01b038216036101a85760405162461bcd60e51b815260206004820152601760248201527f43616e6e6f74207472616e7366657220746f2073656c6600000000000000000060448201526064016100d1565b600180546001600160a01b0319166001600160a01b0383811691821790925560008054604051929316917fed8889f560326eb138920d842192f0eb3dd22b4f139c87a2c57538e05bae12789190a350565b60006020828403121561020b57600080fd5b81516001600160401b038116811461022257600080fd5b9392505050565b6080516109b661024b6000396000818161018901526101cb01526109b66000f3fe608060405234801561001057600080fd5b50600436106100935760003560e01c8063a168fa8911610066578063a168fa89146100f6578063d8a4676f14610139578063e0c862891461015a578063f2fde38b14610162578063fc2a88c31461017557600080fd5b80631fe543e31461009857806379ba5097146100ad5780638796ba8c146100b55780638da5cb5b146100db575b600080fd5b6100ab6100a63660046107dd565b61017e565b005b6100ab61020b565b6100c86100c33660046108a7565b6102b5565b6040519081526020015b60405180910390f35b6000546040516001600160a01b0390911681526020016100d2565b6101226101043660046108a7565b60026020526000908152604090205460ff8082169161010090041682565b6040805192151583529015156020830152016100d2565b61014c6101473660046108a7565b6102d6565b6040516100d29291906108fb565b6100c86103ca565b6100ab61017036600461091e565b61058f565b6100c860055481565b336001600160a01b037f000000000000000000000000000000000000000000000000000000000000000016146101fd5760405163073e64fd60e21b81523360048201526001600160a01b037f00000000000000000000000000000000000000000000000000000000000000001660248201526044015b60405180910390fd5b61020782826105a3565b5050565b6001546001600160a01b0316331461025e5760405162461bcd60e51b815260206004820152601660248201527526bab9ba10313290383937b837b9b2b21037bbb732b960511b60448201526064016101f4565b60008054336001600160a01b0319808316821784556001805490911690556040516001600160a01b0390921692909183917f8be0079c531659141344cd1fd0a4f28419497f9722a3daafe3b4186f6b6457e091a350565b600481815481106102c557600080fd5b600091825260209091200154905081565b600081815260026020526040812054606090610100900460ff166103305760405162461bcd60e51b81526020600482015260116024820152701c995c5d595cdd081b9bdd08199bdd5b99607a1b60448201526064016101f4565b60008381526002602090815260408083208151606081018352815460ff80821615158352610100909104161515818501526001820180548451818702810187018652818152929593948601938301828280156103ab57602002820191906000526020600020905b815481526020019060010190808311610397575b5050505050815250509050806000015181604001519250925050915091565b60006103d4610669565b6003546006546007546040516305d3b1d360e41b81526004810192909252600160a01b830467ffffffffffffffff166024830152640100000000810461ffff16604483015263ffffffff808216606484015266010000000000009091041660848201526001600160a01b0390911690635d3b1d309060a4016020604051808303816000875af115801561046b573d6000803e3d6000fd5b505050506040513d601f19601f8201168201806040525081019061048f919061094e565b6040805160608101825260008082526001602080840182815285518481528083018752858701908152878552600283529590932084518154945161ffff1990951690151561ff001916176101009415159490940293909317835593518051959650929491936105049391850192910190610767565b5050600480546001810182556000919091527f8a35acfbc15ff81a39ae7d344fd709f28e8600b4aa8c65c6b64bfe7fe36bd19b0182905550600581905560075460408051838152660100000000000090920463ffffffff1660208301527fcc58b13ad3eab50626c6a6300b1d139cd6ebb1688a7cced9461c2f7e762665ee910160405180910390a190565b610597610669565b6105a0816106be565b50565b600082815260026020526040902054610100900460ff166105fa5760405162461bcd60e51b81526020600482015260116024820152701c995c5d595cdd081b9bdd08199bdd5b99607a1b60448201526064016101f4565b6000828152600260209081526040909120805460ff191660019081178255835161062b939290910191840190610767565b507ffe2e2d779dba245964d4e3ef9b994be63856fd568bf7d3ca9e224755cb1bd54d828260405161065d929190610967565b60405180910390a15050565b6000546001600160a01b031633146106bc5760405162461bcd60e51b815260206004820152601660248201527527b7363c9031b0b63630b1363290313c9037bbb732b960511b60448201526064016101f4565b565b336001600160a01b038216036107165760405162461bcd60e51b815260206004820152601760248201527f43616e6e6f74207472616e7366657220746f2073656c6600000000000000000060448201526064016101f4565b600180546001600160a01b0319166001600160a01b0383811691821790925560008054604051929316917fed8889f560326eb138920d842192f0eb3dd22b4f139c87a2c57538e05bae12789190a350565b8280548282559060005260206000209081019282156107a2579160200282015b828111156107a2578251825591602001919060010190610787565b506107ae9291506107b2565b5090565b5b808211156107ae57600081556001016107b3565b634e487b7160e01b600052604160045260246000fd5b600080604083850312156107f057600080fd5b8235915060208084013567ffffffffffffffff8082111561081057600080fd5b818601915086601f83011261082457600080fd5b813581811115610836576108366107c7565b8060051b604051601f19603f8301168101818110858211171561085b5761085b6107c7565b60405291825284820192508381018501918983111561087957600080fd5b938501935b828510156108975784358452938501939285019261087e565b8096505050505050509250929050565b6000602082840312156108b957600080fd5b5035919050565b600081518084526020808501945080840160005b838110156108f0578151875295820195908201906001016108d4565b509495945050505050565b821515815260406020820152600061091660408301846108c0565b949350505050565b60006020828403121561093057600080fd5b81356001600160a01b038116811461094757600080fd5b9392505050565b60006020828403121561096057600080fd5b5051919050565b82815260406020820152600061091660408301846108c056fea2646970667358221220ed12bfa39a2555f190682d95e158510f45f6ce6a675ce56cc9a4cbe25e1b33ba64736f6c63430008130033a26469706673582212206d4319e74df73bc8454b74eede936c260e0ae50d4a90241930f65980f29f26b264736f6c63430008130033",
    "sourcePath": "/media/arya/_dev_sda3/BlockChainProjects/airdrop/merkle-distributor/contracts/MerkleDistributor.sol",
    "compiler": {
        "name": "solc",
        "version": "0.8.19+commit.7dd6d404"
    },
    "functionHashes": {
        "claim(bytes32[])": "b391c508",
        "claim721(address,address,uint256,bytes32[])": "e333ee02",
        "drawWinner()": "b2185bb1",
        "dropERC20()": "73f95d6b",
        "merkleRoot()": "2eb4a7ab",
        "onERC1155BatchReceived(address,address,uint256[],uint256[],bytes)": "bc197c81",
        "onERC1155Received(address,address,uint256,uint256,bytes)": "f23a6e61",
        "onERC721Received(address,address,uint256,bytes)": "150b7a02",
        "supportsInterface(bytes4)": "01ffc9a7",
        "tokenERC1155()": "09c33c67",
        "tokenERC20()": "9d143e8e",
        "tokenERC721()": "e9adc770"
    },
    "gasEstimates": {
        "creation": {
            "codeDepositCost": "1261800",
            "executionCost": "infinite",
            "totalCost": "infinite"
        },
        "external": {
            "claim(bytes32[])": "infinite",
            "claim721(address,address,uint256,bytes32[])": "infinite",
            "drawWinner()": "infinite",
            "dropERC20()": "2384",
            "merkleRoot()": "infinite",
            "onERC1155BatchReceived(address,address,uint256[],uint256[],bytes)": "infinite",
            "onERC1155Received(address,address,uint256,uint256,bytes)": "infinite",
            "onERC721Received(address,address,uint256,bytes)": "infinite",
            "supportsInterface(bytes4)": "427",
            "tokenERC1155()": "infinite",
            "tokenERC20()": "infinite",
            "tokenERC721()": "infinite"
        }
    }
}